{
  "contractName": "BFEv4",
  "abi": [
    {
      "inputs": [],
      "stateMutability": "nonpayable",
      "type": "constructor"
    },
    {
      "anonymous": false,
      "inputs": [
        {
          "indexed": false,
          "internalType": "uint256",
          "name": "fid",
          "type": "uint256"
        },
        {
          "indexed": false,
          "internalType": "address payable",
          "name": "seller",
          "type": "address"
        },
        {
          "indexed": false,
          "internalType": "string",
          "name": "fname",
          "type": "string"
        },
        {
          "indexed": false,
          "internalType": "uint256",
          "name": "price",
          "type": "uint256"
        },
        {
          "indexed": false,
          "internalType": "uint256",
          "name": "qty",
          "type": "uint256"
        }
      ],
      "name": "FoodItemAdded",
      "type": "event"
    },
    {
      "anonymous": false,
      "inputs": [
        {
          "indexed": false,
          "internalType": "uint256",
          "name": "fid",
          "type": "uint256"
        },
        {
          "indexed": false,
          "internalType": "address",
          "name": "buyer",
          "type": "address"
        },
        {
          "indexed": false,
          "internalType": "address payable",
          "name": "seller",
          "type": "address"
        },
        {
          "indexed": false,
          "internalType": "string",
          "name": "fname",
          "type": "string"
        },
        {
          "indexed": false,
          "internalType": "uint256",
          "name": "count",
          "type": "uint256"
        }
      ],
      "name": "FoodItemBought",
      "type": "event"
    },
    {
      "anonymous": false,
      "inputs": [
        {
          "indexed": false,
          "internalType": "uint256",
          "name": "bid",
          "type": "uint256"
        },
        {
          "indexed": false,
          "internalType": "string",
          "name": "bname",
          "type": "string"
        },
        {
          "indexed": false,
          "internalType": "enum BFEv4.Type",
          "name": "userType",
          "type": "uint8"
        }
      ],
      "name": "UserRegistered",
      "type": "event"
    },
    {
      "anonymous": false,
      "inputs": [
        {
          "indexed": false,
          "internalType": "uint256",
          "name": "bid",
          "type": "uint256"
        },
        {
          "indexed": false,
          "internalType": "string",
          "name": "bname",
          "type": "string"
        },
        {
          "indexed": false,
          "internalType": "enum BFEv4.Type",
          "name": "userType",
          "type": "uint8"
        }
      ],
      "name": "UserUnregistered",
      "type": "event"
    },
    {
      "inputs": [],
      "name": "balance",
      "outputs": [
        {
          "internalType": "uint256",
          "name": "",
          "type": "uint256"
        }
      ],
      "stateMutability": "view",
      "type": "function",
      "constant": true
    },
    {
      "inputs": [
        {
          "internalType": "uint256",
          "name": "",
          "type": "uint256"
        }
      ],
      "name": "menu",
      "outputs": [
        {
          "internalType": "uint256",
          "name": "fid",
          "type": "uint256"
        },
        {
          "internalType": "address payable",
          "name": "seller",
          "type": "address"
        },
        {
          "internalType": "string",
          "name": "fname",
          "type": "string"
        },
        {
          "internalType": "uint256",
          "name": "price",
          "type": "uint256"
        },
        {
          "internalType": "uint256",
          "name": "qty",
          "type": "uint256"
        }
      ],
      "stateMutability": "view",
      "type": "function",
      "constant": true
    },
    {
      "inputs": [
        {
          "internalType": "address",
          "name": "",
          "type": "address"
        }
      ],
      "name": "users",
      "outputs": [
        {
          "internalType": "uint256",
          "name": "id",
          "type": "uint256"
        },
        {
          "internalType": "string",
          "name": "name",
          "type": "string"
        },
        {
          "internalType": "enum BFEv4.Type",
          "name": "userType",
          "type": "uint8"
        },
        {
          "internalType": "bool",
          "name": "reg",
          "type": "bool"
        },
        {
          "internalType": "bool",
          "name": "available",
          "type": "bool"
        }
      ],
      "stateMutability": "view",
      "type": "function",
      "constant": true
    },
    {
      "inputs": [
        {
          "internalType": "string",
          "name": "name",
          "type": "string"
        },
        {
          "internalType": "enum BFEv4.Type",
          "name": "userType",
          "type": "uint8"
        }
      ],
      "name": "UserReg",
      "outputs": [],
      "stateMutability": "nonpayable",
      "type": "function"
    },
    {
      "inputs": [],
      "name": "UserUnreg",
      "outputs": [],
      "stateMutability": "nonpayable",
      "type": "function"
    },
    {
      "inputs": [],
      "name": "DelvPersonAvail",
      "outputs": [],
      "stateMutability": "nonpayable",
      "type": "function"
    },
    {
      "inputs": [
        {
          "internalType": "string",
          "name": "name",
          "type": "string"
        },
        {
          "internalType": "uint256",
          "name": "price",
          "type": "uint256"
        },
        {
          "internalType": "uint256",
          "name": "qty",
          "type": "uint256"
        }
      ],
      "name": "FoodItemReg",
      "outputs": [],
      "stateMutability": "nonpayable",
      "type": "function"
    },
    {
      "inputs": [
        {
          "internalType": "uint256",
          "name": "id",
          "type": "uint256"
        },
        {
          "internalType": "uint256",
          "name": "price",
          "type": "uint256"
        },
        {
          "internalType": "uint256",
          "name": "qty",
          "type": "uint256"
        }
      ],
      "name": "FoodItemUpdate",
      "outputs": [],
      "stateMutability": "nonpayable",
      "type": "function"
    },
    {
      "inputs": [
        {
          "internalType": "uint256",
          "name": "id",
          "type": "uint256"
        },
        {
          "internalType": "uint256",
          "name": "count",
          "type": "uint256"
        },
        {
          "internalType": "bool",
          "name": "delv",
          "type": "bool"
        },
        {
          "internalType": "uint256",
          "name": "delvCost",
          "type": "uint256"
        },
        {
          "internalType": "address payable",
          "name": "delvperson",
          "type": "address"
        }
      ],
      "name": "Buy",
      "outputs": [],
      "stateMutability": "payable",
      "type": "function",
      "payable": true
    }
  ],
  "bytecode": "0x608060405234801561001057600080fd5b5047600081905550612596806100276000396000f3fe6080604052600436106100865760003560e01c8063a87430ba11610059578063a87430ba1461010b578063b69ef8a81461014c578063b95246fc14610177578063cffb703c146101a0578063d4f895e1146101e157610086565b80633b634d711461008b5780633d8c3a1f146100a25780634ef4760e146100cb578063594cd6d5146100e2575b600080fd5b34801561009757600080fd5b506100a06101fd565b005b3480156100ae57600080fd5b506100c960048036038101906100c49190611992565b6103c1565b005b3480156100d757600080fd5b506100e06105ab565b005b3480156100ee57600080fd5b5061010960048036038101906101049190611a24565b61085a565b005b34801561011757600080fd5b50610132600480360381019061012d9190611ad5565b610c3d565b604051610143959493929190611c2b565b60405180910390f35b34801561015857600080fd5b50610161610d22565b60405161016e9190611c85565b60405180910390f35b34801561018357600080fd5b5061019e60048036038101906101999190611ca0565b610d28565b005b3480156101ac57600080fd5b506101c760048036038101906101c29190611d0f565b611037565b6040516101d8959493929190611d5d565b60405180910390f35b6101fb60048036038101906101f69190611e0f565b611115565b005b600360003373ffffffffffffffffffffffffffffffffffffffff1673ffffffffffffffffffffffffffffffffffffffff16815260200190815260200160002060020160019054906101000a900460ff1680156102cb575060028081111561026757610266611b99565b5b600360003373ffffffffffffffffffffffffffffffffffffffff1673ffffffffffffffffffffffffffffffffffffffff16815260200190815260200160002060020160009054906101000a900460ff1660028111156102c9576102c8611b99565b5b145b61030a576040517f08c379a000000000000000000000000000000000000000000000000000000000815260040161030190611ed6565b60405180910390fd5b600360003373ffffffffffffffffffffffffffffffffffffffff1673ffffffffffffffffffffffffffffffffffffffff16815260200190815260200160002060020160029054906101000a900460ff161561036457600080fd5b6001600360003373ffffffffffffffffffffffffffffffffffffffff1673ffffffffffffffffffffffffffffffffffffffff16815260200190815260200160002060020160026101000a81548160ff021916908315150217905550565b806002808111156103d5576103d4611b99565b5b8160028111156103e8576103e7611b99565b5b11156103f357600080fd5b6000835111610437576040517f08c379a000000000000000000000000000000000000000000000000000000000815260040161042e90611f42565b60405180910390fd5b6001600081548092919061044a90611f91565b91905055506040518060a00160405280600154815260200184815260200183600281111561047b5761047a611b99565b5b815260200160011515815260200160011515815250600360003373ffffffffffffffffffffffffffffffffffffffff1673ffffffffffffffffffffffffffffffffffffffff1681526020019081526020016000206000820151816000015560208201518160010190805190602001906104f5929190611770565b5060408201518160020160006101000a81548160ff0219169083600281111561052157610520611b99565b5b021790555060608201518160020160016101000a81548160ff02191690831515021790555060808201518160020160026101000a81548160ff0219169083151502179055509050507fd2f7b23eb8037a62d84c53363fde3b576ec32f2b75f40d359622ac551e3d6910600154848460405161059e93929190611fd9565b60405180910390a1505050565b6000600360003373ffffffffffffffffffffffffffffffffffffffff1673ffffffffffffffffffffffffffffffffffffffff1681526020019081526020016000206040518060a00160405290816000820154815260200160018201805461061190612046565b80601f016020809104026020016040519081016040528092919081815260200182805461063d90612046565b801561068a5780601f1061065f5761010080835404028352916020019161068a565b820191906000526020600020905b81548152906001019060200180831161066d57829003601f168201915b505050505081526020016002820160009054906101000a900460ff1660028111156106b8576106b7611b99565b5b60028111156106ca576106c9611b99565b5b81526020016002820160019054906101000a900460ff161515151581526020016002820160029054906101000a900460ff1615151515815250509050806060015161071457600080fd5b6000816060019015159081151581525050600081608001901515908115158152505080600360003373ffffffffffffffffffffffffffffffffffffffff1673ffffffffffffffffffffffffffffffffffffffff16815260200190815260200160002060008201518160000155602082015181600101908051906020019061079c929190611770565b5060408201518160020160006101000a81548160ff021916908360028111156107c8576107c7611b99565b5b021790555060608201518160020160016101000a81548160ff02191690831515021790555060808201518160020160026101000a81548160ff0219169083151502179055509050507fa7af9fd1f87c93fa697ed737f6da410c3ce677e59f4890a0bcec329b66b8961a81600001518260200151836040015160405161084f93929190611fd9565b60405180910390a150565b600360003373ffffffffffffffffffffffffffffffffffffffff1673ffffffffffffffffffffffffffffffffffffffff16815260200190815260200160002060020160019054906101000a900460ff1680156109295750600160028111156108c5576108c4611b99565b5b600360003373ffffffffffffffffffffffffffffffffffffffff1673ffffffffffffffffffffffffffffffffffffffff16815260200190815260200160002060020160009054906101000a900460ff16600281111561092757610926611b99565b5b145b610968576040517f08c379a000000000000000000000000000000000000000000000000000000000815260040161095f906120c3565b60405180910390fd5b6002548311156109ad576040517f08c379a00000000000000000000000000000000000000000000000000000000081526004016109a49061212f565b60405180910390fd5b6000600460008581526020019081526020016000206040518060a0016040529081600082015481526020016001820160009054906101000a900473ffffffffffffffffffffffffffffffffffffffff1673ffffffffffffffffffffffffffffffffffffffff1673ffffffffffffffffffffffffffffffffffffffff168152602001600282018054610a3d90612046565b80601f0160208091040260200160405190810160405280929190818152602001828054610a6990612046565b8015610ab65780601f10610a8b57610100808354040283529160200191610ab6565b820191906000526020600020905b815481529060010190602001808311610a9957829003601f168201915b505050505081526020016003820154815260200160048201548152505090503373ffffffffffffffffffffffffffffffffffffffff16816020015173ffffffffffffffffffffffffffffffffffffffff1614610b47576040517f08c379a0000000000000000000000000000000000000000000000000000000008152600401610b3e9061219b565b60405180910390fd5b818160800181815250508281606001818152505080600460008681526020019081526020016000206000820151816000015560208201518160010160006101000a81548173ffffffffffffffffffffffffffffffffffffffff021916908373ffffffffffffffffffffffffffffffffffffffff1602179055506040820151816002019080519060200190610bdc929190611770565b5060608201518160030155608082015181600401559050507fd564d602f7bce00749aa4252ec9e2a81edee0a1f35b03104e31d4dc13b9fc046843383604001518686604051610c2f959493929190611d5d565b60405180910390a150505050565b6003602052806000526040600020600091509050806000015490806001018054610c6690612046565b80601f0160208091040260200160405190810160405280929190818152602001828054610c9290612046565b8015610cdf5780601f10610cb457610100808354040283529160200191610cdf565b820191906000526020600020905b815481529060010190602001808311610cc257829003601f168201915b5050505050908060020160009054906101000a900460ff16908060020160019054906101000a900460ff16908060020160029054906101000a900460ff16905085565b60005481565b600360003373ffffffffffffffffffffffffffffffffffffffff1673ffffffffffffffffffffffffffffffffffffffff16815260200190815260200160002060020160019054906101000a900460ff168015610df7575060016002811115610d9357610d92611b99565b5b600360003373ffffffffffffffffffffffffffffffffffffffff1673ffffffffffffffffffffffffffffffffffffffff16815260200190815260200160002060020160009054906101000a900460ff166002811115610df557610df4611b99565b5b145b610e36576040517f08c379a0000000000000000000000000000000000000000000000000000000008152600401610e2d906120c3565b60405180910390fd5b6000835111610e7a576040517f08c379a0000000000000000000000000000000000000000000000000000000008152600401610e7190611f42565b60405180910390fd5b60008211610ebd576040517f08c379a0000000000000000000000000000000000000000000000000000000008152600401610eb490612207565b60405180910390fd5b60008111610f00576040517f08c379a0000000000000000000000000000000000000000000000000000000008152600401610ef790612273565b60405180910390fd5b60026000815480929190610f1390611f91565b91905055506040518060a0016040528060025481526020013373ffffffffffffffffffffffffffffffffffffffff168152602001848152602001838152602001828152506004600060025481526020019081526020016000206000820151816000015560208201518160010160006101000a81548173ffffffffffffffffffffffffffffffffffffffff021916908373ffffffffffffffffffffffffffffffffffffffff1602179055506040820151816002019080519060200190610fd9929190611770565b5060608201518160030155608082015181600401559050507fd564d602f7bce00749aa4252ec9e2a81edee0a1f35b03104e31d4dc13b9fc0466002543385858560405161102a959493929190611d5d565b60405180910390a1505050565b60046020528060005260406000206000915090508060000154908060010160009054906101000a900473ffffffffffffffffffffffffffffffffffffffff169080600201805461108690612046565b80601f01602080910402602001604051908101604052809291908181526020018280546110b290612046565b80156110ff5780601f106110d4576101008083540402835291602001916110ff565b820191906000526020600020905b8154815290600101906020018083116110e257829003601f168201915b5050505050908060030154908060040154905085565b600360003373ffffffffffffffffffffffffffffffffffffffff1673ffffffffffffffffffffffffffffffffffffffff16815260200190815260200160002060020160019054906101000a900460ff1680156111e45750600060028111156111805761117f611b99565b5b600360003373ffffffffffffffffffffffffffffffffffffffff1673ffffffffffffffffffffffffffffffffffffffff16815260200190815260200160002060020160009054906101000a900460ff1660028111156111e2576111e1611b99565b5b145b611223576040517f08c379a000000000000000000000000000000000000000000000000000000000815260040161121a906122df565b60405180910390fd5b600254851115611268576040517f08c379a000000000000000000000000000000000000000000000000000000000815260040161125f9061212f565b60405180910390fd5b600084116112ab576040517f08c379a00000000000000000000000000000000000000000000000000000000081526004016112a290612273565b60405180910390fd5b82158061135c5750600360008273ffffffffffffffffffffffffffffffffffffffff1673ffffffffffffffffffffffffffffffffffffffff16815260200190815260200160002060020160019054906101000a900460ff16801561135b5750600360008273ffffffffffffffffffffffffffffffffffffffff1673ffffffffffffffffffffffffffffffffffffffff16815260200190815260200160002060020160029054906101000a900460ff165b5b61139b576040517f08c379a000000000000000000000000000000000000000000000000000000000815260040161139290612371565b60405180910390fd5b6000600460008781526020019081526020016000206040518060a0016040529081600082015481526020016001820160009054906101000a900473ffffffffffffffffffffffffffffffffffffffff1673ffffffffffffffffffffffffffffffffffffffff1673ffffffffffffffffffffffffffffffffffffffff16815260200160028201805461142b90612046565b80601f016020809104026020016040519081016040528092919081815260200182805461145790612046565b80156114a45780601f10611479576101008083540402835291602001916114a4565b820191906000526020600020905b81548152906001019060200180831161148757829003601f168201915b50505050508152602001600382015481526020016004820154815250509050806080015185111561150a576040517f08c379a0000000000000000000000000000000000000000000000000000000008152600401611501906123dd565b60405180910390fd5b6000816080015111611551576040517f08c379a000000000000000000000000000000000000000000000000000000000815260040161154890612449565b60405180910390fd5b600060018683606001516115659190612469565b61156f9190612469565b90506000826020015190508073ffffffffffffffffffffffffffffffffffffffff166108fc839081150290604051600060405180830381858888f193505050501580156115c0573d6000803e3d6000fd5b50851561166a578373ffffffffffffffffffffffffffffffffffffffff166108fc869081150290604051600060405180830381858888f1935050505015801561160d573d6000803e3d6000fd5b506000600360008673ffffffffffffffffffffffffffffffffffffffff1673ffffffffffffffffffffffffffffffffffffffff16815260200190815260200160002060020160026101000a81548160ff0219169083151502179055505b47600081905550868360800181815161168391906124c3565b9150818152505082600460008a81526020019081526020016000206000820151816000015560208201518160010160006101000a81548173ffffffffffffffffffffffffffffffffffffffff021916908373ffffffffffffffffffffffffffffffffffffffff160217905550604082015181600201908051906020019061170b929190611770565b5060608201518160030155608082015181600401559050507fa2fcdf9cd60b71d8f17a76d0f18aee919d3b1f50c687c2b1518c4d9069ba0b4588338386604001518b60405161175e959493929190612506565b60405180910390a15050505050505050565b82805461177c90612046565b90600052602060002090601f01602090048101928261179e57600085556117e5565b82601f106117b757805160ff19168380011785556117e5565b828001600101855582156117e5579182015b828111156117e45782518255916020019190600101906117c9565b5b5090506117f291906117f6565b5090565b5b8082111561180f5760008160009055506001016117f7565b5090565b6000604051905090565b600080fd5b600080fd5b600080fd5b600080fd5b6000601f19601f8301169050919050565b7f4e487b7100000000000000000000000000000000000000000000000000000000600052604160045260246000fd5b61187a82611831565b810181811067ffffffffffffffff8211171561189957611898611842565b5b80604052505050565b60006118ac611813565b90506118b88282611871565b919050565b600067ffffffffffffffff8211156118d8576118d7611842565b5b6118e182611831565b9050602081019050919050565b82818337600083830152505050565b600061191061190b846118bd565b6118a2565b90508281526020810184848401111561192c5761192b61182c565b5b6119378482856118ee565b509392505050565b600082601f83011261195457611953611827565b5b81356119648482602086016118fd565b91505092915050565b6003811061197a57600080fd5b50565b60008135905061198c8161196d565b92915050565b600080604083850312156119a9576119a861181d565b5b600083013567ffffffffffffffff8111156119c7576119c6611822565b5b6119d38582860161193f565b92505060206119e48582860161197d565b9150509250929050565b6000819050919050565b611a01816119ee565b8114611a0c57600080fd5b50565b600081359050611a1e816119f8565b92915050565b600080600060608486031215611a3d57611a3c61181d565b5b6000611a4b86828701611a0f565b9350506020611a5c86828701611a0f565b9250506040611a6d86828701611a0f565b9150509250925092565b600073ffffffffffffffffffffffffffffffffffffffff82169050919050565b6000611aa282611a77565b9050919050565b611ab281611a97565b8114611abd57600080fd5b50565b600081359050611acf81611aa9565b92915050565b600060208284031215611aeb57611aea61181d565b5b6000611af984828501611ac0565b91505092915050565b611b0b816119ee565b82525050565b600081519050919050565b600082825260208201905092915050565b60005b83811015611b4b578082015181840152602081019050611b30565b83811115611b5a576000848401525b50505050565b6000611b6b82611b11565b611b758185611b1c565b9350611b85818560208601611b2d565b611b8e81611831565b840191505092915050565b7f4e487b7100000000000000000000000000000000000000000000000000000000600052602160045260246000fd5b60038110611bd957611bd8611b99565b5b50565b6000819050611bea82611bc8565b919050565b6000611bfa82611bdc565b9050919050565b611c0a81611bef565b82525050565b60008115159050919050565b611c2581611c10565b82525050565b600060a082019050611c406000830188611b02565b8181036020830152611c528187611b60565b9050611c616040830186611c01565b611c6e6060830185611c1c565b611c7b6080830184611c1c565b9695505050505050565b6000602082019050611c9a6000830184611b02565b92915050565b600080600060608486031215611cb957611cb861181d565b5b600084013567ffffffffffffffff811115611cd757611cd6611822565b5b611ce38682870161193f565b9350506020611cf486828701611a0f565b9250506040611d0586828701611a0f565b9150509250925092565b600060208284031215611d2557611d2461181d565b5b6000611d3384828501611a0f565b91505092915050565b6000611d4782611a77565b9050919050565b611d5781611d3c565b82525050565b600060a082019050611d726000830188611b02565b611d7f6020830187611d4e565b8181036040830152611d918186611b60565b9050611da06060830185611b02565b611dad6080830184611b02565b9695505050505050565b611dc081611c10565b8114611dcb57600080fd5b50565b600081359050611ddd81611db7565b92915050565b611dec81611d3c565b8114611df757600080fd5b50565b600081359050611e0981611de3565b92915050565b600080600080600060a08688031215611e2b57611e2a61181d565b5b6000611e3988828901611a0f565b9550506020611e4a88828901611a0f565b9450506040611e5b88828901611dce565b9350506060611e6c88828901611a0f565b9250506080611e7d88828901611dfa565b9150509295509295909350565b7f4e6f7420612064656c697665727920706572736f6e0000000000000000000000600082015250565b6000611ec0601583611b1c565b9150611ecb82611e8a565b602082019050919050565b60006020820190508181036000830152611eef81611eb3565b9050919050565b7f4e616d652063616e6e6f7420626520656d707479000000000000000000000000600082015250565b6000611f2c601483611b1c565b9150611f3782611ef6565b602082019050919050565b60006020820190508181036000830152611f5b81611f1f565b9050919050565b7f4e487b7100000000000000000000000000000000000000000000000000000000600052601160045260246000fd5b6000611f9c826119ee565b91507fffffffffffffffffffffffffffffffffffffffffffffffffffffffffffffffff8203611fce57611fcd611f62565b5b600182019050919050565b6000606082019050611fee6000830186611b02565b81810360208301526120008185611b60565b905061200f6040830184611c01565b949350505050565b7f4e487b7100000000000000000000000000000000000000000000000000000000600052602260045260246000fd5b6000600282049050600182168061205e57607f821691505b60208210810361207157612070612017565b5b50919050565b7f4e6f7420612073656c6c65720000000000000000000000000000000000000000600082015250565b60006120ad600c83611b1c565b91506120b882612077565b602082019050919050565b600060208201905081810360008301526120dc816120a0565b9050919050565b7f4974656d20646f6573206e6f7420657869737473000000000000000000000000600082015250565b6000612119601483611b1c565b9150612124826120e3565b602082019050919050565b600060208201905081810360008301526121488161210c565b9050919050565b7f4e6f742074686520617574686f72697a65642073656c6c657200000000000000600082015250565b6000612185601983611b1c565b91506121908261214f565b602082019050919050565b600060208201905081810360008301526121b481612178565b9050919050565b7f4974656d2070726963652063616e6e6f74206265203000000000000000000000600082015250565b60006121f1601683611b1c565b91506121fc826121bb565b602082019050919050565b60006020820190508181036000830152612220816121e4565b9050919050565b7f4974656d20636f756e742063616e6e6f74206265203000000000000000000000600082015250565b600061225d601683611b1c565b915061226882612227565b602082019050919050565b6000602082019050818103600083015261228c81612250565b9050919050565b7f4e6f742061206275796572000000000000000000000000000000000000000000600082015250565b60006122c9600b83611b1c565b91506122d482612293565b602082019050919050565b600060208201905081810360008301526122f8816122bc565b9050919050565b7f44656c697665727920706572736f6e206973206e6f7420617661696c61626c6560008201527f206f722072656769737465726564000000000000000000000000000000000000602082015250565b600061235b602e83611b1c565b9150612366826122ff565b604082019050919050565b6000602082019050818103600083015261238a8161234e565b9050919050565b7f526571756972656d656e74206e6f74206d657400000000000000000000000000600082015250565b60006123c7601383611b1c565b91506123d282612391565b602082019050919050565b600060208201905081810360008301526123f6816123ba565b9050919050565b7f4974656d20556e617661696c61626c6500000000000000000000000000000000600082015250565b6000612433601083611b1c565b915061243e826123fd565b602082019050919050565b6000602082019050818103600083015261246281612426565b9050919050565b6000612474826119ee565b915061247f836119ee565b9250817fffffffffffffffffffffffffffffffffffffffffffffffffffffffffffffffff04831182151516156124b8576124b7611f62565b5b828202905092915050565b60006124ce826119ee565b91506124d9836119ee565b9250828210156124ec576124eb611f62565b5b828203905092915050565b61250081611a97565b82525050565b600060a08201905061251b6000830188611b02565b61252860208301876124f7565b6125356040830186611d4e565b81810360608301526125478185611b60565b90506125566080830184611b02565b969550505050505056fea2646970667358221220b3d68b5210d491b1055fac07915462cba67fc184a583bf8cadca32f992ca9fd864736f6c634300080d0033",
  "immutableReferences": {},
  "source": "//SPDX-License-Identifier: UNLICENSED\npragma solidity >=0.4.22 <=0.9.0;\ncontract BFEv4 {\n    \n    enum Type {Buyer, Seller, DeliveryPerson}\n    struct User{\n        uint id;\n        string name;\n        Type userType;\n        bool reg;\n        bool available;\n    }\n\n    struct FoodItem{\n        uint fid;\n        address payable seller;\n        string fname;\n        uint price;\n        uint qty;\n    }\n\n    uint public balance;\n    uint uid;\n    uint mid;\n    mapping(address => User) public users;\n    mapping(uint => FoodItem) public menu;\n\n    event UserRegistered(uint bid, string bname, Type userType);\n    event UserUnregistered(uint bid, string bname, Type userType);\n    event FoodItemAdded(uint fid, address payable seller, string fname, uint price, uint qty);\n    event FoodItemBought(uint fid, address buyer, address payable seller, string fname, uint count);\n\n    modifier onlySeller(){\n        require(users[msg.sender].reg && users[msg.sender].userType == Type.Seller, \"Not a seller\");\n        _;\n    }\n\n    modifier onlyBuyer(){\n        require(users[msg.sender].reg && users[msg.sender].userType == Type.Buyer, \"Not a buyer\");\n        _;\n    }\n\n    modifier onlyDeliveryPerson{\n        require(users[msg.sender].reg && users[msg.sender].userType == Type.DeliveryPerson, \"Not a delivery person\");\n        _;\n    }\n\n    modifier validUserType(Type userType){\n        require(userType <= Type.DeliveryPerson);\n        _;\n    }\n\n    constructor() public{\n        balance = address(this).balance;\n    }\n\n    function UserReg(string memory name, Type userType) public validUserType(userType){\n        require(bytes(name).length > 0, \"Name cannot be empty\");\n        uid ++;\n        users[msg.sender] = User(uid, name, userType, true, true);\n        emit UserRegistered(uid, name, userType);\n    }\n\n    function UserUnreg() public{\n        User memory user = users[msg.sender];\n        require(user.reg);\n        user.reg = false;\n        user.available = false;\n        users[msg.sender] = user;\n        emit UserUnregistered(user.id, user.name, user.userType);\n    }\n\n    function DelvPersonAvail() public onlyDeliveryPerson{\n        require(!users[msg.sender].available);\n        users[msg.sender].available = true;\n    }\n\n    function FoodItemReg(string memory name, uint price, uint qty) public onlySeller{\n        require(bytes(name).length > 0, \"Name cannot be empty\");\n        require(price > 0, \"Item price cannot be 0\");\n        require(qty > 0, \"Item count cannot be 0\");\n        mid ++;\n        menu[mid] = FoodItem(mid, payable(msg.sender), name, price, qty);\n        emit FoodItemAdded(mid, payable(msg.sender), name, price, qty);\n    }\n\n    function FoodItemUpdate(uint id, uint price, uint qty) public onlySeller{\n        require(id <= mid, \"Item does not exists\");\n        FoodItem memory item = menu[id];\n        require(item.seller == msg.sender, \"Not the authorized seller\");\n        item.qty = qty;\n        item.price = price;\n        menu[id] = item;\n        emit FoodItemAdded(id, payable(msg.sender), item.fname, price, qty);\n    }\n\n    function Buy(uint id, uint count, bool delv,uint delvCost, address payable delvperson) public payable onlyBuyer{\n        require(id <= mid, \"Item does not exists\");\n        require(count > 0, \"Item count cannot be 0\");\n        require(!delv || (users[delvperson].reg && users[delvperson].available), \"Delivery person is not available or registered\");\n        FoodItem memory item = menu[id];\n        require(count <= item.qty, \"Requirement not met\");\n        require(item.qty > 0, \"Item Unavailable\");\n        uint itemCost = item.price * count * 1 wei;\n        // uint delvCost = 1 ether * 1 wei;\n        // require(msg.value == itemCost, \"Please send proper money\");\n        address payable seller = item.seller;\n        seller.transfer(itemCost);\n        // payable(this).transfer(1 ether);\n        if (delv){\n            delvperson.transfer(delvCost);\n            users[delvperson].available = false;\n        }\n        balance = address(this).balance;\n        item.qty -= count;\n        menu[id] = item;\n        emit FoodItemBought(id, msg.sender, seller, item.fname, count);\n    }\n}\n",
  "sourcePath": "/Users/hipswan/Desktop/projects/marketplace/src/contracts/BFEv4.sol",
  "compiler": {
    "name": "solc",
    "version": "0.8.13+commit.abaa5c0e.Emscripten.clang"
  },
  "schemaVersion": "3.4.6",
  "updatedAt": "2022-04-07T21:47:55.226Z",
  "networkType": "ethereum",
  "devdoc": {
    "kind": "dev",
    "methods": {},
    "version": 1
  },
  "userdoc": {
    "kind": "user",
    "methods": {},
    "version": 1
  }
}