{
  "contractName": "BFEv4",
  "abi": [
    {
      "anonymous": false,
      "inputs": [
        {
          "indexed": false,
          "internalType": "uint256",
          "name": "fid",
          "type": "uint256"
        },
        {
          "indexed": false,
          "internalType": "address payable",
          "name": "seller",
          "type": "address"
        },
        {
          "indexed": false,
          "internalType": "string",
          "name": "fname",
          "type": "string"
        },
        {
          "indexed": false,
          "internalType": "uint256",
          "name": "price",
          "type": "uint256"
        },
        {
          "indexed": false,
          "internalType": "uint256",
          "name": "qty",
          "type": "uint256"
        }
      ],
      "name": "FoodItemAdded",
      "type": "event"
    },
    {
      "anonymous": false,
      "inputs": [
        {
          "indexed": false,
          "internalType": "uint256",
          "name": "fid",
          "type": "uint256"
        },
        {
          "indexed": false,
          "internalType": "address",
          "name": "buyer",
          "type": "address"
        },
        {
          "indexed": false,
          "internalType": "address payable",
          "name": "seller",
          "type": "address"
        },
        {
          "indexed": false,
          "internalType": "string",
          "name": "fname",
          "type": "string"
        },
        {
          "indexed": false,
          "internalType": "uint256",
          "name": "count",
          "type": "uint256"
        }
      ],
      "name": "FoodItemBought",
      "type": "event"
    },
    {
      "anonymous": false,
      "inputs": [
        {
          "indexed": false,
          "internalType": "uint256",
          "name": "bid",
          "type": "uint256"
        },
        {
          "indexed": false,
          "internalType": "string",
          "name": "bname",
          "type": "string"
        },
        {
          "indexed": false,
          "internalType": "enum BFEv4.Type",
          "name": "userType",
          "type": "uint8"
        }
      ],
      "name": "UserRegistered",
      "type": "event"
    },
    {
      "anonymous": false,
      "inputs": [
        {
          "indexed": false,
          "internalType": "uint256",
          "name": "bid",
          "type": "uint256"
        },
        {
          "indexed": false,
          "internalType": "string",
          "name": "bname",
          "type": "string"
        },
        {
          "indexed": false,
          "internalType": "enum BFEv4.Type",
          "name": "userType",
          "type": "uint8"
        }
      ],
      "name": "UserUnregistered",
      "type": "event"
    },
    {
      "inputs": [
        {
          "internalType": "uint256",
          "name": "",
          "type": "uint256"
        }
      ],
      "name": "menu",
      "outputs": [
        {
          "internalType": "uint256",
          "name": "fid",
          "type": "uint256"
        },
        {
          "internalType": "address payable",
          "name": "seller",
          "type": "address"
        },
        {
          "internalType": "string",
          "name": "fname",
          "type": "string"
        },
        {
          "internalType": "uint256",
          "name": "price",
          "type": "uint256"
        },
        {
          "internalType": "uint256",
          "name": "qty",
          "type": "uint256"
        }
      ],
      "stateMutability": "view",
      "type": "function",
      "constant": true
    },
    {
      "inputs": [
        {
          "internalType": "address",
          "name": "",
          "type": "address"
        }
      ],
      "name": "users",
      "outputs": [
        {
          "internalType": "uint256",
          "name": "id",
          "type": "uint256"
        },
        {
          "internalType": "string",
          "name": "name",
          "type": "string"
        },
        {
          "internalType": "enum BFEv4.Type",
          "name": "userType",
          "type": "uint8"
        },
        {
          "internalType": "bool",
          "name": "reg",
          "type": "bool"
        }
      ],
      "stateMutability": "view",
      "type": "function",
      "constant": true
    },
    {
      "inputs": [
        {
          "internalType": "string",
          "name": "name",
          "type": "string"
        },
        {
          "internalType": "enum BFEv4.Type",
          "name": "userType",
          "type": "uint8"
        }
      ],
      "name": "UserReg",
      "outputs": [],
      "stateMutability": "nonpayable",
      "type": "function"
    },
    {
      "inputs": [],
      "name": "UserUnreg",
      "outputs": [],
      "stateMutability": "nonpayable",
      "type": "function"
    },
    {
      "inputs": [
        {
          "internalType": "string",
          "name": "name",
          "type": "string"
        },
        {
          "internalType": "uint256",
          "name": "price",
          "type": "uint256"
        },
        {
          "internalType": "uint256",
          "name": "qty",
          "type": "uint256"
        }
      ],
      "name": "FoodItemReg",
      "outputs": [],
      "stateMutability": "nonpayable",
      "type": "function"
    },
    {
      "inputs": [
        {
          "internalType": "uint256",
          "name": "id",
          "type": "uint256"
        },
        {
          "internalType": "uint256",
          "name": "count",
          "type": "uint256"
        }
      ],
      "name": "Buy",
      "outputs": [],
      "stateMutability": "payable",
      "type": "function",
      "payable": true
    }
  ],
  "bytecode": "0x608060405234801561001057600080fd5b50611a2b806100206000396000f3fe6080604052600436106100555760003560e01c80633d8c3a1f1461005a5780634ef4760e1461008357806376911b5d1461009a578063a87430ba146100b6578063b95246fc146100f6578063cffb703c1461011f575b600080fd5b34801561006657600080fd5b50610081600480360381019061007c91906110fa565b610160565b005b34801561008f57600080fd5b50610098610320565b005b6100b460048036038101906100af919061118c565b610583565b005b3480156100c257600080fd5b506100dd60048036038101906100d8919061122a565b610a1a565b6040516100ed9493929190611380565b60405180910390f35b34801561010257600080fd5b5061011d600480360381019061011891906113cc565b610aec565b005b34801561012b57600080fd5b506101466004803603810190610141919061143b565b610dfa565b604051610157959493929190611489565b60405180910390f35b80600180811115610174576101736112ee565b5b816001811115610187576101866112ee565b5b111561019257600080fd5b60008351116101d6576040517f08c379a00000000000000000000000000000000000000000000000000000000081526004016101cd9061152f565b60405180910390fd5b6000808154809291906101e89061157e565b919050555060405180608001604052806000548152602001848152602001836001811115610219576102186112ee565b5b815260200160011515815250600260003373ffffffffffffffffffffffffffffffffffffffff1673ffffffffffffffffffffffffffffffffffffffff16815260200190815260200160002060008201518160000155602082015181600101908051906020019061028a929190610ed8565b5060408201518160020160006101000a81548160ff021916908360018111156102b6576102b56112ee565b5b021790555060608201518160020160016101000a81548160ff0219169083151502179055509050507fd2f7b23eb8037a62d84c53363fde3b576ec32f2b75f40d359622ac551e3d69106000548484604051610313939291906115c6565b60405180910390a1505050565b6000600260003373ffffffffffffffffffffffffffffffffffffffff1673ffffffffffffffffffffffffffffffffffffffff1681526020019081526020016000206040518060800160405290816000820154815260200160018201805461038690611633565b80601f01602080910402602001604051908101604052809291908181526020018280546103b290611633565b80156103ff5780601f106103d4576101008083540402835291602001916103ff565b820191906000526020600020905b8154815290600101906020018083116103e257829003601f168201915b505050505081526020016002820160009054906101000a900460ff16600181111561042d5761042c6112ee565b5b600181111561043f5761043e6112ee565b5b81526020016002820160019054906101000a900460ff1615151515815250509050806060015161046e57600080fd5b600081606001901515908115158152505080600260003373ffffffffffffffffffffffffffffffffffffffff1673ffffffffffffffffffffffffffffffffffffffff1681526020019081526020016000206000820151816000015560208201518160010190805190602001906104e5929190610ed8565b5060408201518160020160006101000a81548160ff02191690836001811115610511576105106112ee565b5b021790555060608201518160020160016101000a81548160ff0219169083151502179055509050507fa7af9fd1f87c93fa697ed737f6da410c3ce677e59f4890a0bcec329b66b8961a816000015182602001518360400151604051610578939291906115c6565b60405180910390a150565b600260003373ffffffffffffffffffffffffffffffffffffffff1673ffffffffffffffffffffffffffffffffffffffff16815260200190815260200160002060020160019054906101000a900460ff1680156106525750600060018111156105ee576105ed6112ee565b5b600260003373ffffffffffffffffffffffffffffffffffffffff1673ffffffffffffffffffffffffffffffffffffffff16815260200190815260200160002060020160009054906101000a900460ff1660018111156106505761064f6112ee565b5b145b610691576040517f08c379a0000000000000000000000000000000000000000000000000000000008152600401610688906116b0565b60405180910390fd5b6001548211156106d6576040517f08c379a00000000000000000000000000000000000000000000000000000000081526004016106cd9061171c565b60405180910390fd5b60008111610719576040517f08c379a000000000000000000000000000000000000000000000000000000000815260040161071090611788565b60405180910390fd5b6000600360008481526020019081526020016000206040518060a0016040529081600082015481526020016001820160009054906101000a900473ffffffffffffffffffffffffffffffffffffffff1673ffffffffffffffffffffffffffffffffffffffff1673ffffffffffffffffffffffffffffffffffffffff1681526020016002820180546107a990611633565b80601f01602080910402602001604051908101604052809291908181526020018280546107d590611633565b80156108225780601f106107f757610100808354040283529160200191610822565b820191906000526020600020905b81548152906001019060200180831161080557829003601f168201915b505050505081526020016003820154815260200160048201548152505090508060800151821115610888576040517f08c379a000000000000000000000000000000000000000000000000000000000815260040161087f906117f4565b60405180910390fd5b60008160800151116108cf576040517f08c379a00000000000000000000000000000000000000000000000000000000081526004016108c690611860565b60405180910390fd5b6000816020015190508073ffffffffffffffffffffffffffffffffffffffff166108fc349081150290604051600060405180830381858888f1935050505015801561091e573d6000803e3d6000fd5b5082826080018181516109319190611880565b9150818152505081600360008681526020019081526020016000206000820151816000015560208201518160010160006101000a81548173ffffffffffffffffffffffffffffffffffffffff021916908373ffffffffffffffffffffffffffffffffffffffff16021790555060408201518160020190805190602001906109b9929190610ed8565b5060608201518160030155608082015181600401559050507fa2fcdf9cd60b71d8f17a76d0f18aee919d3b1f50c687c2b1518c4d9069ba0b45843383856040015187604051610a0c9594939291906118c3565b60405180910390a150505050565b6002602052806000526040600020600091509050806000015490806001018054610a4390611633565b80601f0160208091040260200160405190810160405280929190818152602001828054610a6f90611633565b8015610abc5780601f10610a9157610100808354040283529160200191610abc565b820191906000526020600020905b815481529060010190602001808311610a9f57829003601f168201915b5050505050908060020160009054906101000a900460ff16908060020160019054906101000a900460ff16905084565b600260003373ffffffffffffffffffffffffffffffffffffffff1673ffffffffffffffffffffffffffffffffffffffff16815260200190815260200160002060020160019054906101000a900460ff168015610bba5750600180811115610b5657610b556112ee565b5b600260003373ffffffffffffffffffffffffffffffffffffffff1673ffffffffffffffffffffffffffffffffffffffff16815260200190815260200160002060020160009054906101000a900460ff166001811115610bb857610bb76112ee565b5b145b610bf9576040517f08c379a0000000000000000000000000000000000000000000000000000000008152600401610bf090611969565b60405180910390fd5b6000835111610c3d576040517f08c379a0000000000000000000000000000000000000000000000000000000008152600401610c349061152f565b60405180910390fd5b60008211610c80576040517f08c379a0000000000000000000000000000000000000000000000000000000008152600401610c77906119d5565b60405180910390fd5b60008111610cc3576040517f08c379a0000000000000000000000000000000000000000000000000000000008152600401610cba90611788565b60405180910390fd5b60016000815480929190610cd69061157e565b91905055506040518060a0016040528060015481526020013373ffffffffffffffffffffffffffffffffffffffff168152602001848152602001838152602001828152506003600060015481526020019081526020016000206000820151816000015560208201518160010160006101000a81548173ffffffffffffffffffffffffffffffffffffffff021916908373ffffffffffffffffffffffffffffffffffffffff1602179055506040820151816002019080519060200190610d9c929190610ed8565b5060608201518160030155608082015181600401559050507fd564d602f7bce00749aa4252ec9e2a81edee0a1f35b03104e31d4dc13b9fc04660015433858585604051610ded959493929190611489565b60405180910390a1505050565b60036020528060005260406000206000915090508060000154908060010160009054906101000a900473ffffffffffffffffffffffffffffffffffffffff1690806002018054610e4990611633565b80601f0160208091040260200160405190810160405280929190818152602001828054610e7590611633565b8015610ec25780601f10610e9757610100808354040283529160200191610ec2565b820191906000526020600020905b815481529060010190602001808311610ea557829003601f168201915b5050505050908060030154908060040154905085565b828054610ee490611633565b90600052602060002090601f016020900481019282610f065760008555610f4d565b82601f10610f1f57805160ff1916838001178555610f4d565b82800160010185558215610f4d579182015b82811115610f4c578251825591602001919060010190610f31565b5b509050610f5a9190610f5e565b5090565b5b80821115610f77576000816000905550600101610f5f565b5090565b6000604051905090565b600080fd5b600080fd5b600080fd5b600080fd5b6000601f19601f8301169050919050565b7f4e487b7100000000000000000000000000000000000000000000000000000000600052604160045260246000fd5b610fe282610f99565b810181811067ffffffffffffffff8211171561100157611000610faa565b5b80604052505050565b6000611014610f7b565b90506110208282610fd9565b919050565b600067ffffffffffffffff8211156110405761103f610faa565b5b61104982610f99565b9050602081019050919050565b82818337600083830152505050565b600061107861107384611025565b61100a565b90508281526020810184848401111561109457611093610f94565b5b61109f848285611056565b509392505050565b600082601f8301126110bc576110bb610f8f565b5b81356110cc848260208601611065565b91505092915050565b600281106110e257600080fd5b50565b6000813590506110f4816110d5565b92915050565b6000806040838503121561111157611110610f85565b5b600083013567ffffffffffffffff81111561112f5761112e610f8a565b5b61113b858286016110a7565b925050602061114c858286016110e5565b9150509250929050565b6000819050919050565b61116981611156565b811461117457600080fd5b50565b60008135905061118681611160565b92915050565b600080604083850312156111a3576111a2610f85565b5b60006111b185828601611177565b92505060206111c285828601611177565b9150509250929050565b600073ffffffffffffffffffffffffffffffffffffffff82169050919050565b60006111f7826111cc565b9050919050565b611207816111ec565b811461121257600080fd5b50565b600081359050611224816111fe565b92915050565b6000602082840312156112405761123f610f85565b5b600061124e84828501611215565b91505092915050565b61126081611156565b82525050565b600081519050919050565b600082825260208201905092915050565b60005b838110156112a0578082015181840152602081019050611285565b838111156112af576000848401525b50505050565b60006112c082611266565b6112ca8185611271565b93506112da818560208601611282565b6112e381610f99565b840191505092915050565b7f4e487b7100000000000000000000000000000000000000000000000000000000600052602160045260246000fd5b6002811061132e5761132d6112ee565b5b50565b600081905061133f8261131d565b919050565b600061134f82611331565b9050919050565b61135f81611344565b82525050565b60008115159050919050565b61137a81611365565b82525050565b60006080820190506113956000830187611257565b81810360208301526113a781866112b5565b90506113b66040830185611356565b6113c36060830184611371565b95945050505050565b6000806000606084860312156113e5576113e4610f85565b5b600084013567ffffffffffffffff81111561140357611402610f8a565b5b61140f868287016110a7565b935050602061142086828701611177565b925050604061143186828701611177565b9150509250925092565b60006020828403121561145157611450610f85565b5b600061145f84828501611177565b91505092915050565b6000611473826111cc565b9050919050565b61148381611468565b82525050565b600060a08201905061149e6000830188611257565b6114ab602083018761147a565b81810360408301526114bd81866112b5565b90506114cc6060830185611257565b6114d96080830184611257565b9695505050505050565b7f4e616d652063616e6e6f7420626520656d707479000000000000000000000000600082015250565b6000611519601483611271565b9150611524826114e3565b602082019050919050565b600060208201905081810360008301526115488161150c565b9050919050565b7f4e487b7100000000000000000000000000000000000000000000000000000000600052601160045260246000fd5b600061158982611156565b91507fffffffffffffffffffffffffffffffffffffffffffffffffffffffffffffffff82036115bb576115ba61154f565b5b600182019050919050565b60006060820190506115db6000830186611257565b81810360208301526115ed81856112b5565b90506115fc6040830184611356565b949350505050565b7f4e487b7100000000000000000000000000000000000000000000000000000000600052602260045260246000fd5b6000600282049050600182168061164b57607f821691505b60208210810361165e5761165d611604565b5b50919050565b7f4e6f742061206275796572000000000000000000000000000000000000000000600082015250565b600061169a600b83611271565b91506116a582611664565b602082019050919050565b600060208201905081810360008301526116c98161168d565b9050919050565b7f4974656d20646f6573206e6f7420657869737473000000000000000000000000600082015250565b6000611706601483611271565b9150611711826116d0565b602082019050919050565b60006020820190508181036000830152611735816116f9565b9050919050565b7f4974656d20636f756e742063616e6e6f74206265203000000000000000000000600082015250565b6000611772601683611271565b915061177d8261173c565b602082019050919050565b600060208201905081810360008301526117a181611765565b9050919050565b7f526571756972656d656e74206e6f74206d657400000000000000000000000000600082015250565b60006117de601383611271565b91506117e9826117a8565b602082019050919050565b6000602082019050818103600083015261180d816117d1565b9050919050565b7f4974656d20556e617661696c61626c6500000000000000000000000000000000600082015250565b600061184a601083611271565b915061185582611814565b602082019050919050565b600060208201905081810360008301526118798161183d565b9050919050565b600061188b82611156565b915061189683611156565b9250828210156118a9576118a861154f565b5b828203905092915050565b6118bd816111ec565b82525050565b600060a0820190506118d86000830188611257565b6118e560208301876118b4565b6118f2604083018661147a565b818103606083015261190481856112b5565b90506119136080830184611257565b9695505050505050565b7f4e6f7420612073656c6c65720000000000000000000000000000000000000000600082015250565b6000611953600c83611271565b915061195e8261191d565b602082019050919050565b6000602082019050818103600083015261198281611946565b9050919050565b7f4974656d2070726963652063616e6e6f74206265203000000000000000000000600082015250565b60006119bf601683611271565b91506119ca82611989565b602082019050919050565b600060208201905081810360008301526119ee816119b2565b905091905056fea2646970667358221220d158a17ee0741e3fa23013d1fce3b8dad85199de5c274efe1b2a710fc3055adc64736f6c634300080d0033",
  "immutableReferences": {},
  "source": "//SPDX-License-Identifier: UNLICENSED\npragma solidity >=0.4.22 <=0.9.0;\ncontract BFEv4 {\n    \n    enum Type {Buyer, Seller}\n    struct User{\n        uint id;\n        string name;\n        Type userType;\n        bool reg;\n    }\n\n    struct FoodItem{\n        uint fid;\n        address payable seller;\n        string fname;\n        uint price;\n        uint qty;\n    }\n\n    uint uid;\n    uint mid;\n    mapping(address => User) public users;\n    mapping(uint => FoodItem) public menu;\n\n    event UserRegistered(uint bid, string bname, Type userType);\n    event UserUnregistered(uint bid, string bname, Type userType);\n    event FoodItemAdded(uint fid, address payable seller, string fname, uint price, uint qty);\n    event FoodItemBought(uint fid, address buyer, address payable seller, string fname, uint count);\n\n    modifier onlySeller(){\n        require(users[msg.sender].reg && users[msg.sender].userType == Type.Seller, \"Not a seller\");\n        _;\n    }\n\n    modifier onlyBuyer(){\n        require(users[msg.sender].reg && users[msg.sender].userType == Type.Buyer, \"Not a buyer\");\n        _;\n    }\n\n\n    modifier validUserType(Type userType){\n        require(userType <= Type.Seller);\n        _;\n    }\n\n    function UserReg(string memory name, Type userType) public validUserType(userType){\n        require(bytes(name).length > 0, \"Name cannot be empty\");\n        uid ++;\n        users[msg.sender] = User(uid, name, userType, true);\n        emit UserRegistered(uid, name, userType);\n    }\n\n    function UserUnreg() public{\n        User memory user = users[msg.sender];\n        require(user.reg);\n        user.reg = false;\n        users[msg.sender] = user;\n        emit UserUnregistered(user.id, user.name, user.userType);\n    }\n\n    function FoodItemReg(string memory name, uint price, uint qty) public onlySeller{\n        require(bytes(name).length > 0, \"Name cannot be empty\");\n        require(price > 0, \"Item price cannot be 0\");\n        require(qty > 0, \"Item count cannot be 0\");\n        mid ++;\n        menu[mid] = FoodItem(mid, payable(msg.sender), name, price, qty);\n        emit FoodItemAdded(mid, payable(msg.sender), name, price, qty);\n    }\n\n    function Buy(uint id, uint count) public payable onlyBuyer{\n        require(id <= mid, \"Item does not exists\");\n        require(count > 0, \"Item count cannot be 0\");\n        FoodItem memory item = menu[id];\n        require(count <= item.qty, \"Requirement not met\");\n        require(item.qty > 0, \"Item Unavailable\");\n        // uint itemCost = item.price * count * 1 ether;\n        // require(msg.value == itemCost, \"Please send proper money\");\n        address payable seller = item.seller;\n        seller.transfer(msg.value);\n        item.qty -= count;\n        menu[id] = item;\n        emit FoodItemBought(id, msg.sender, seller, item.fname, count);\n    }\n}\n",
  "sourcePath": "/Users/hipswan/Desktop/projects/marketplace/src/contracts/BFEv4.sol",
  "compiler": {
    "name": "solc",
    "version": "0.8.13+commit.abaa5c0e.Emscripten.clang"
  },
  "schemaVersion": "3.4.6",
  "updatedAt": "2022-04-05T09:02:00.764Z",
  "networkType": "ethereum",
  "devdoc": {
    "kind": "dev",
    "methods": {},
    "version": 1
  },
  "userdoc": {
    "kind": "user",
    "methods": {},
    "version": 1
  }
}