{
  "contractName": "BFEv4",
  "abi": [
    {
      "anonymous": false,
      "inputs": [
        {
          "indexed": false,
          "internalType": "uint256",
          "name": "fid",
          "type": "uint256"
        },
        {
          "indexed": false,
          "internalType": "address payable",
          "name": "seller",
          "type": "address"
        },
        {
          "indexed": false,
          "internalType": "string",
          "name": "fname",
          "type": "string"
        },
        {
          "indexed": false,
          "internalType": "uint256",
          "name": "price",
          "type": "uint256"
        },
        {
          "indexed": false,
          "internalType": "uint256",
          "name": "qty",
          "type": "uint256"
        }
      ],
      "name": "FoodItemAdded",
      "type": "event"
    },
    {
      "anonymous": false,
      "inputs": [
        {
          "indexed": false,
          "internalType": "uint256",
          "name": "fid",
          "type": "uint256"
        },
        {
          "indexed": false,
          "internalType": "address",
          "name": "buyer",
          "type": "address"
        },
        {
          "indexed": false,
          "internalType": "address payable",
          "name": "seller",
          "type": "address"
        },
        {
          "indexed": false,
          "internalType": "string",
          "name": "fname",
          "type": "string"
        },
        {
          "indexed": false,
          "internalType": "uint256",
          "name": "count",
          "type": "uint256"
        }
      ],
      "name": "FoodItemBought",
      "type": "event"
    },
    {
      "anonymous": false,
      "inputs": [
        {
          "indexed": false,
          "internalType": "uint256",
          "name": "bid",
          "type": "uint256"
        },
        {
          "indexed": false,
          "internalType": "string",
          "name": "bname",
          "type": "string"
        },
        {
          "indexed": false,
          "internalType": "enum BFEv4.Type",
          "name": "userType",
          "type": "uint8"
        }
      ],
      "name": "UserRegistered",
      "type": "event"
    },
    {
      "anonymous": false,
      "inputs": [
        {
          "indexed": false,
          "internalType": "uint256",
          "name": "bid",
          "type": "uint256"
        },
        {
          "indexed": false,
          "internalType": "string",
          "name": "bname",
          "type": "string"
        },
        {
          "indexed": false,
          "internalType": "enum BFEv4.Type",
          "name": "userType",
          "type": "uint8"
        }
      ],
      "name": "UserUnregistered",
      "type": "event"
    },
    {
      "inputs": [
        {
          "internalType": "uint256",
          "name": "",
          "type": "uint256"
        }
      ],
      "name": "menu",
      "outputs": [
        {
          "internalType": "uint256",
          "name": "fid",
          "type": "uint256"
        },
        {
          "internalType": "address payable",
          "name": "seller",
          "type": "address"
        },
        {
          "internalType": "string",
          "name": "fname",
          "type": "string"
        },
        {
          "internalType": "uint256",
          "name": "price",
          "type": "uint256"
        },
        {
          "internalType": "uint256",
          "name": "qty",
          "type": "uint256"
        }
      ],
      "stateMutability": "view",
      "type": "function",
      "constant": true
    },
    {
      "inputs": [
        {
          "internalType": "address",
          "name": "",
          "type": "address"
        }
      ],
      "name": "users",
      "outputs": [
        {
          "internalType": "uint256",
          "name": "id",
          "type": "uint256"
        },
        {
          "internalType": "string",
          "name": "name",
          "type": "string"
        },
        {
          "internalType": "enum BFEv4.Type",
          "name": "userType",
          "type": "uint8"
        },
        {
          "internalType": "bool",
          "name": "reg",
          "type": "bool"
        }
      ],
      "stateMutability": "view",
      "type": "function",
      "constant": true
    },
    {
      "inputs": [
        {
          "internalType": "string",
          "name": "name",
          "type": "string"
        },
        {
          "internalType": "enum BFEv4.Type",
          "name": "userType",
          "type": "uint8"
        }
      ],
      "name": "UserReg",
      "outputs": [],
      "stateMutability": "nonpayable",
      "type": "function"
    },
    {
      "inputs": [],
      "name": "UserUnreg",
      "outputs": [],
      "stateMutability": "nonpayable",
      "type": "function"
    },
    {
      "inputs": [
        {
          "internalType": "string",
          "name": "name",
          "type": "string"
        },
        {
          "internalType": "uint256",
          "name": "price",
          "type": "uint256"
        },
        {
          "internalType": "uint256",
          "name": "qty",
          "type": "uint256"
        }
      ],
      "name": "FoodItemReg",
      "outputs": [],
      "stateMutability": "nonpayable",
      "type": "function"
    },
    {
      "inputs": [
        {
          "internalType": "uint256",
          "name": "id",
          "type": "uint256"
        },
        {
          "internalType": "uint256",
          "name": "count",
          "type": "uint256"
        }
      ],
      "name": "Buy",
      "outputs": [],
      "stateMutability": "payable",
      "type": "function",
      "payable": true
    }
  ],
  "bytecode": "0x608060405234801561001057600080fd5b50611b5b806100206000396000f3fe6080604052600436106100555760003560e01c80633d8c3a1f1461005a5780634ef4760e1461008357806376911b5d1461009a578063a87430ba146100b6578063b95246fc146100f6578063cffb703c1461011f575b600080fd5b34801561006657600080fd5b50610081600480360381019061007c9190611164565b610160565b005b34801561008f57600080fd5b50610098610320565b005b6100b460048036038101906100af91906111f6565b610583565b005b3480156100c257600080fd5b506100dd60048036038101906100d89190611294565b610a84565b6040516100ed94939291906113ea565b60405180910390f35b34801561010257600080fd5b5061011d60048036038101906101189190611436565b610b56565b005b34801561012b57600080fd5b50610146600480360381019061014191906114a5565b610e64565b6040516101579594939291906114f3565b60405180910390f35b8060018081111561017457610173611358565b5b81600181111561018757610186611358565b5b111561019257600080fd5b60008351116101d6576040517f08c379a00000000000000000000000000000000000000000000000000000000081526004016101cd90611599565b60405180910390fd5b6000808154809291906101e8906115e8565b91905055506040518060800160405280600054815260200184815260200183600181111561021957610218611358565b5b815260200160011515815250600260003373ffffffffffffffffffffffffffffffffffffffff1673ffffffffffffffffffffffffffffffffffffffff16815260200190815260200160002060008201518160000155602082015181600101908051906020019061028a929190610f42565b5060408201518160020160006101000a81548160ff021916908360018111156102b6576102b5611358565b5b021790555060608201518160020160016101000a81548160ff0219169083151502179055509050507fd2f7b23eb8037a62d84c53363fde3b576ec32f2b75f40d359622ac551e3d6910600054848460405161031393929190611630565b60405180910390a1505050565b6000600260003373ffffffffffffffffffffffffffffffffffffffff1673ffffffffffffffffffffffffffffffffffffffff168152602001908152602001600020604051806080016040529081600082015481526020016001820180546103869061169d565b80601f01602080910402602001604051908101604052809291908181526020018280546103b29061169d565b80156103ff5780601f106103d4576101008083540402835291602001916103ff565b820191906000526020600020905b8154815290600101906020018083116103e257829003601f168201915b505050505081526020016002820160009054906101000a900460ff16600181111561042d5761042c611358565b5b600181111561043f5761043e611358565b5b81526020016002820160019054906101000a900460ff1615151515815250509050806060015161046e57600080fd5b600081606001901515908115158152505080600260003373ffffffffffffffffffffffffffffffffffffffff1673ffffffffffffffffffffffffffffffffffffffff1681526020019081526020016000206000820151816000015560208201518160010190805190602001906104e5929190610f42565b5060408201518160020160006101000a81548160ff0219169083600181111561051157610510611358565b5b021790555060608201518160020160016101000a81548160ff0219169083151502179055509050507fa7af9fd1f87c93fa697ed737f6da410c3ce677e59f4890a0bcec329b66b8961a81600001518260200151836040015160405161057893929190611630565b60405180910390a150565b600260003373ffffffffffffffffffffffffffffffffffffffff1673ffffffffffffffffffffffffffffffffffffffff16815260200190815260200160002060020160019054906101000a900460ff1680156106525750600060018111156105ee576105ed611358565b5b600260003373ffffffffffffffffffffffffffffffffffffffff1673ffffffffffffffffffffffffffffffffffffffff16815260200190815260200160002060020160009054906101000a900460ff1660018111156106505761064f611358565b5b145b610691576040517f08c379a00000000000000000000000000000000000000000000000000000000081526004016106889061171a565b60405180910390fd5b6001548211156106d6576040517f08c379a00000000000000000000000000000000000000000000000000000000081526004016106cd90611786565b60405180910390fd5b60008111610719576040517f08c379a0000000000000000000000000000000000000000000000000000000008152600401610710906117f2565b60405180910390fd5b6000600360008481526020019081526020016000206040518060a0016040529081600082015481526020016001820160009054906101000a900473ffffffffffffffffffffffffffffffffffffffff1673ffffffffffffffffffffffffffffffffffffffff1673ffffffffffffffffffffffffffffffffffffffff1681526020016002820180546107a99061169d565b80601f01602080910402602001604051908101604052809291908181526020018280546107d59061169d565b80156108225780601f106107f757610100808354040283529160200191610822565b820191906000526020600020905b81548152906001019060200180831161080557829003601f168201915b505050505081526020016003820154815260200160048201548152505090508060800151821115610888576040517f08c379a000000000000000000000000000000000000000000000000000000000815260040161087f9061185e565b60405180910390fd5b60008160800151116108cf576040517f08c379a00000000000000000000000000000000000000000000000000000000081526004016108c6906118ca565b60405180910390fd5b6000670de0b6b3a76400008383606001516108ea91906118ea565b6108f491906118ea565b9050803414610938576040517f08c379a000000000000000000000000000000000000000000000000000000000815260040161092f90611990565b60405180910390fd5b6000826020015190508073ffffffffffffffffffffffffffffffffffffffff166108fc349081150290604051600060405180830381858888f19350505050158015610987573d6000803e3d6000fd5b50838360800181815161099a91906119b0565b9150818152505082600360008781526020019081526020016000206000820151816000015560208201518160010160006101000a81548173ffffffffffffffffffffffffffffffffffffffff021916908373ffffffffffffffffffffffffffffffffffffffff1602179055506040820151816002019080519060200190610a22929190610f42565b5060608201518160030155608082015181600401559050507fa2fcdf9cd60b71d8f17a76d0f18aee919d3b1f50c687c2b1518c4d9069ba0b45853383866040015188604051610a759594939291906119f3565b60405180910390a15050505050565b6002602052806000526040600020600091509050806000015490806001018054610aad9061169d565b80601f0160208091040260200160405190810160405280929190818152602001828054610ad99061169d565b8015610b265780601f10610afb57610100808354040283529160200191610b26565b820191906000526020600020905b815481529060010190602001808311610b0957829003601f168201915b5050505050908060020160009054906101000a900460ff16908060020160019054906101000a900460ff16905084565b600260003373ffffffffffffffffffffffffffffffffffffffff1673ffffffffffffffffffffffffffffffffffffffff16815260200190815260200160002060020160019054906101000a900460ff168015610c245750600180811115610bc057610bbf611358565b5b600260003373ffffffffffffffffffffffffffffffffffffffff1673ffffffffffffffffffffffffffffffffffffffff16815260200190815260200160002060020160009054906101000a900460ff166001811115610c2257610c21611358565b5b145b610c63576040517f08c379a0000000000000000000000000000000000000000000000000000000008152600401610c5a90611a99565b60405180910390fd5b6000835111610ca7576040517f08c379a0000000000000000000000000000000000000000000000000000000008152600401610c9e90611599565b60405180910390fd5b60008211610cea576040517f08c379a0000000000000000000000000000000000000000000000000000000008152600401610ce190611b05565b60405180910390fd5b60008111610d2d576040517f08c379a0000000000000000000000000000000000000000000000000000000008152600401610d24906117f2565b60405180910390fd5b60016000815480929190610d40906115e8565b91905055506040518060a0016040528060015481526020013373ffffffffffffffffffffffffffffffffffffffff168152602001848152602001838152602001828152506003600060015481526020019081526020016000206000820151816000015560208201518160010160006101000a81548173ffffffffffffffffffffffffffffffffffffffff021916908373ffffffffffffffffffffffffffffffffffffffff1602179055506040820151816002019080519060200190610e06929190610f42565b5060608201518160030155608082015181600401559050507fd564d602f7bce00749aa4252ec9e2a81edee0a1f35b03104e31d4dc13b9fc04660015433858585604051610e579594939291906114f3565b60405180910390a1505050565b60036020528060005260406000206000915090508060000154908060010160009054906101000a900473ffffffffffffffffffffffffffffffffffffffff1690806002018054610eb39061169d565b80601f0160208091040260200160405190810160405280929190818152602001828054610edf9061169d565b8015610f2c5780601f10610f0157610100808354040283529160200191610f2c565b820191906000526020600020905b815481529060010190602001808311610f0f57829003601f168201915b5050505050908060030154908060040154905085565b828054610f4e9061169d565b90600052602060002090601f016020900481019282610f705760008555610fb7565b82601f10610f8957805160ff1916838001178555610fb7565b82800160010185558215610fb7579182015b82811115610fb6578251825591602001919060010190610f9b565b5b509050610fc49190610fc8565b5090565b5b80821115610fe1576000816000905550600101610fc9565b5090565b6000604051905090565b600080fd5b600080fd5b600080fd5b600080fd5b6000601f19601f8301169050919050565b7f4e487b7100000000000000000000000000000000000000000000000000000000600052604160045260246000fd5b61104c82611003565b810181811067ffffffffffffffff8211171561106b5761106a611014565b5b80604052505050565b600061107e610fe5565b905061108a8282611043565b919050565b600067ffffffffffffffff8211156110aa576110a9611014565b5b6110b382611003565b9050602081019050919050565b82818337600083830152505050565b60006110e26110dd8461108f565b611074565b9050828152602081018484840111156110fe576110fd610ffe565b5b6111098482856110c0565b509392505050565b600082601f83011261112657611125610ff9565b5b81356111368482602086016110cf565b91505092915050565b6002811061114c57600080fd5b50565b60008135905061115e8161113f565b92915050565b6000806040838503121561117b5761117a610fef565b5b600083013567ffffffffffffffff81111561119957611198610ff4565b5b6111a585828601611111565b92505060206111b68582860161114f565b9150509250929050565b6000819050919050565b6111d3816111c0565b81146111de57600080fd5b50565b6000813590506111f0816111ca565b92915050565b6000806040838503121561120d5761120c610fef565b5b600061121b858286016111e1565b925050602061122c858286016111e1565b9150509250929050565b600073ffffffffffffffffffffffffffffffffffffffff82169050919050565b600061126182611236565b9050919050565b61127181611256565b811461127c57600080fd5b50565b60008135905061128e81611268565b92915050565b6000602082840312156112aa576112a9610fef565b5b60006112b88482850161127f565b91505092915050565b6112ca816111c0565b82525050565b600081519050919050565b600082825260208201905092915050565b60005b8381101561130a5780820151818401526020810190506112ef565b83811115611319576000848401525b50505050565b600061132a826112d0565b61133481856112db565b93506113448185602086016112ec565b61134d81611003565b840191505092915050565b7f4e487b7100000000000000000000000000000000000000000000000000000000600052602160045260246000fd5b6002811061139857611397611358565b5b50565b60008190506113a982611387565b919050565b60006113b98261139b565b9050919050565b6113c9816113ae565b82525050565b60008115159050919050565b6113e4816113cf565b82525050565b60006080820190506113ff60008301876112c1565b8181036020830152611411818661131f565b905061142060408301856113c0565b61142d60608301846113db565b95945050505050565b60008060006060848603121561144f5761144e610fef565b5b600084013567ffffffffffffffff81111561146d5761146c610ff4565b5b61147986828701611111565b935050602061148a868287016111e1565b925050604061149b868287016111e1565b9150509250925092565b6000602082840312156114bb576114ba610fef565b5b60006114c9848285016111e1565b91505092915050565b60006114dd82611236565b9050919050565b6114ed816114d2565b82525050565b600060a08201905061150860008301886112c1565b61151560208301876114e4565b8181036040830152611527818661131f565b905061153660608301856112c1565b61154360808301846112c1565b9695505050505050565b7f4e616d652063616e6e6f7420626520656d707479000000000000000000000000600082015250565b60006115836014836112db565b915061158e8261154d565b602082019050919050565b600060208201905081810360008301526115b281611576565b9050919050565b7f4e487b7100000000000000000000000000000000000000000000000000000000600052601160045260246000fd5b60006115f3826111c0565b91507fffffffffffffffffffffffffffffffffffffffffffffffffffffffffffffffff8203611625576116246115b9565b5b600182019050919050565b600060608201905061164560008301866112c1565b8181036020830152611657818561131f565b905061166660408301846113c0565b949350505050565b7f4e487b7100000000000000000000000000000000000000000000000000000000600052602260045260246000fd5b600060028204905060018216806116b557607f821691505b6020821081036116c8576116c761166e565b5b50919050565b7f4e6f742061206275796572000000000000000000000000000000000000000000600082015250565b6000611704600b836112db565b915061170f826116ce565b602082019050919050565b60006020820190508181036000830152611733816116f7565b9050919050565b7f4974656d20646f6573206e6f7420657869737473000000000000000000000000600082015250565b60006117706014836112db565b915061177b8261173a565b602082019050919050565b6000602082019050818103600083015261179f81611763565b9050919050565b7f4974656d20636f756e742063616e6e6f74206265203000000000000000000000600082015250565b60006117dc6016836112db565b91506117e7826117a6565b602082019050919050565b6000602082019050818103600083015261180b816117cf565b9050919050565b7f526571756972656d656e74206e6f74206d657400000000000000000000000000600082015250565b60006118486013836112db565b915061185382611812565b602082019050919050565b600060208201905081810360008301526118778161183b565b9050919050565b7f4974656d20556e617661696c61626c6500000000000000000000000000000000600082015250565b60006118b46010836112db565b91506118bf8261187e565b602082019050919050565b600060208201905081810360008301526118e3816118a7565b9050919050565b60006118f5826111c0565b9150611900836111c0565b9250817fffffffffffffffffffffffffffffffffffffffffffffffffffffffffffffffff0483118215151615611939576119386115b9565b5b828202905092915050565b7f506c656173652073656e642070726f706572206d6f6e65790000000000000000600082015250565b600061197a6018836112db565b915061198582611944565b602082019050919050565b600060208201905081810360008301526119a98161196d565b9050919050565b60006119bb826111c0565b91506119c6836111c0565b9250828210156119d9576119d86115b9565b5b828203905092915050565b6119ed81611256565b82525050565b600060a082019050611a0860008301886112c1565b611a1560208301876119e4565b611a2260408301866114e4565b8181036060830152611a34818561131f565b9050611a4360808301846112c1565b9695505050505050565b7f4e6f7420612073656c6c65720000000000000000000000000000000000000000600082015250565b6000611a83600c836112db565b9150611a8e82611a4d565b602082019050919050565b60006020820190508181036000830152611ab281611a76565b9050919050565b7f4974656d2070726963652063616e6e6f74206265203000000000000000000000600082015250565b6000611aef6016836112db565b9150611afa82611ab9565b602082019050919050565b60006020820190508181036000830152611b1e81611ae2565b905091905056fea264697066735822122006f1c85e760ae129d91be5cafdcc1240b4e1a321f8f1ae1fbaeea6257458683264736f6c634300080d0033",
  "immutableReferences": {},
  "source": "//SPDX-License-Identifier: UNLICENSED\npragma solidity >=0.4.22 <=0.9.0;\ncontract BFEv4 {\n    \n    enum Type {Buyer, Seller}\n    struct User{\n        uint id;\n        string name;\n        Type userType;\n        bool reg;\n    }\n\n    struct FoodItem{\n        uint fid;\n        address payable seller;\n        string fname;\n        uint price;\n        uint qty;\n    }\n\n    uint uid;\n    uint mid;\n    mapping(address => User) public users;\n    mapping(uint => FoodItem) public menu;\n\n    event UserRegistered(uint bid, string bname, Type userType);\n    event UserUnregistered(uint bid, string bname, Type userType);\n    event FoodItemAdded(uint fid, address payable seller, string fname, uint price, uint qty);\n    event FoodItemBought(uint fid, address buyer, address payable seller, string fname, uint count);\n\n    modifier onlySeller(){\n        require(users[msg.sender].reg && users[msg.sender].userType == Type.Seller, \"Not a seller\");\n        _;\n    }\n\n    modifier onlyBuyer(){\n        require(users[msg.sender].reg && users[msg.sender].userType == Type.Buyer, \"Not a buyer\");\n        _;\n    }\n\n\n    modifier validUserType(Type userType){\n        require(userType <= Type.Seller);\n        _;\n    }\n\n    function UserReg(string memory name, Type userType) public validUserType(userType){\n        require(bytes(name).length > 0, \"Name cannot be empty\");\n        uid ++;\n        users[msg.sender] = User(uid, name, userType, true);\n        emit UserRegistered(uid, name, userType);\n    }\n\n    function UserUnreg() public{\n        User memory user = users[msg.sender];\n        require(user.reg);\n        user.reg = false;\n        users[msg.sender] = user;\n        emit UserUnregistered(user.id, user.name, user.userType);\n    }\n\n    function FoodItemReg(string memory name, uint price, uint qty) public onlySeller{\n        require(bytes(name).length > 0, \"Name cannot be empty\");\n        require(price > 0, \"Item price cannot be 0\");\n        require(qty > 0, \"Item count cannot be 0\");\n        mid ++;\n        menu[mid] = FoodItem(mid, payable(msg.sender), name, price, qty);\n        emit FoodItemAdded(mid, payable(msg.sender), name, price, qty);\n    }\n\n    function Buy(uint id, uint count) public payable onlyBuyer{\n        require(id <= mid, \"Item does not exists\");\n        require(count > 0, \"Item count cannot be 0\");\n        FoodItem memory item = menu[id];\n        require(count <= item.qty, \"Requirement not met\");\n        require(item.qty > 0, \"Item Unavailable\");\n        uint itemCost = item.price * count * 1 ether;\n        require(msg.value == itemCost, \"Please send proper money\");\n        address payable seller = item.seller;\n        seller.transfer(msg.value);\n        item.qty -= count;\n        menu[id] = item;\n        emit FoodItemBought(id, msg.sender, seller, item.fname, count);\n    }\n}\n",
  "sourcePath": "/Users/hipswan/Desktop/projects/marketplace/src/contracts/BFEv4.sol",
  "compiler": {
    "name": "solc",
    "version": "0.8.13+commit.abaa5c0e.Emscripten.clang"
  },
  "schemaVersion": "3.4.6",
  "updatedAt": "2022-04-05T01:30:03.908Z",
  "networkType": "ethereum",
  "devdoc": {
    "kind": "dev",
    "methods": {},
    "version": 1
  },
  "userdoc": {
    "kind": "user",
    "methods": {},
    "version": 1
  }
}