{
  "contractName": "BFEv4",
  "abi": [
    {
      "anonymous": false,
      "inputs": [
        {
          "indexed": false,
          "internalType": "uint256",
          "name": "bid",
          "type": "uint256"
        },
        {
          "indexed": false,
          "internalType": "string",
          "name": "bname",
          "type": "string"
        },
        {
          "indexed": false,
          "internalType": "enum BFEv4.Type",
          "name": "userType",
          "type": "uint8"
        }
      ],
      "name": "UserRegistered",
      "type": "event"
    },
    {
      "anonymous": false,
      "inputs": [
        {
          "indexed": false,
          "internalType": "uint256",
          "name": "bid",
          "type": "uint256"
        },
        {
          "indexed": false,
          "internalType": "string",
          "name": "bname",
          "type": "string"
        },
        {
          "indexed": false,
          "internalType": "enum BFEv4.Type",
          "name": "userType",
          "type": "uint8"
        }
      ],
      "name": "UserUnregistered",
      "type": "event"
    },
    {
      "inputs": [],
      "name": "balance",
      "outputs": [
        {
          "internalType": "uint256",
          "name": "",
          "type": "uint256"
        }
      ],
      "stateMutability": "view",
      "type": "function",
      "constant": true
    },
    {
      "inputs": [
        {
          "internalType": "address",
          "name": "",
          "type": "address"
        }
      ],
      "name": "users",
      "outputs": [
        {
          "internalType": "uint256",
          "name": "id",
          "type": "uint256"
        },
        {
          "internalType": "string",
          "name": "name",
          "type": "string"
        },
        {
          "internalType": "enum BFEv4.Type",
          "name": "userType",
          "type": "uint8"
        },
        {
          "internalType": "bool",
          "name": "reg",
          "type": "bool"
        },
        {
          "internalType": "bool",
          "name": "available",
          "type": "bool"
        }
      ],
      "stateMutability": "view",
      "type": "function",
      "constant": true
    },
    {
      "inputs": [
        {
          "internalType": "string",
          "name": "name",
          "type": "string"
        },
        {
          "internalType": "enum BFEv4.Type",
          "name": "userType",
          "type": "uint8"
        }
      ],
      "name": "UserReg",
      "outputs": [],
      "stateMutability": "nonpayable",
      "type": "function"
    },
    {
      "inputs": [],
      "name": "UserUnreg",
      "outputs": [],
      "stateMutability": "nonpayable",
      "type": "function"
    },
    {
      "inputs": [],
      "name": "DelvPersonAvail",
      "outputs": [],
      "stateMutability": "nonpayable",
      "type": "function"
    },
    {
      "inputs": [
        {
          "internalType": "address payable[]",
          "name": "sellers",
          "type": "address[]"
        },
        {
          "internalType": "uint256[]",
          "name": "money",
          "type": "uint256[]"
        }
      ],
      "name": "Buy",
      "outputs": [],
      "stateMutability": "payable",
      "type": "function",
      "payable": true
    }
  ],
  "bytecode": "0x608060405234801561001057600080fd5b5061148d806100206000396000f3fe6080604052600436106100555760003560e01c80633b634d711461005a5780633d8c3a1f146100715780634ef4760e1461009a578063720b551b146100b1578063a87430ba146100cd578063b69ef8a81461010e575b600080fd5b34801561006657600080fd5b5061006f610139565b005b34801561007d57600080fd5b5061009860048036038101906100939190610c41565b6102a3565b005b3480156100a657600080fd5b506100af61048d565b005b6100cb60048036038101906100c69190610ebc565b61073c565b005b3480156100d957600080fd5b506100f460048036038101906100ef9190610f72565b610934565b6040516101059594939291906110c8565b60405180910390f35b34801561011a57600080fd5b50610123610a19565b6040516101309190611122565b60405180910390f35b600360003373ffffffffffffffffffffffffffffffffffffffff1673ffffffffffffffffffffffffffffffffffffffff16815260200190815260200160002060020160019054906101000a900460ff16801561020757506002808111156101a3576101a2611036565b5b600360003373ffffffffffffffffffffffffffffffffffffffff1673ffffffffffffffffffffffffffffffffffffffff16815260200190815260200160002060020160009054906101000a900460ff16600281111561020557610204611036565b5b145b610246576040517f08c379a000000000000000000000000000000000000000000000000000000000815260040161023d90611189565b60405180910390fd5b6001600360003373ffffffffffffffffffffffffffffffffffffffff1673ffffffffffffffffffffffffffffffffffffffff16815260200190815260200160002060020160026101000a81548160ff021916908315150217905550565b806002808111156102b7576102b6611036565b5b8160028111156102ca576102c9611036565b5b11156102d557600080fd5b6000835111610319576040517f08c379a0000000000000000000000000000000000000000000000000000000008152600401610310906111f5565b60405180910390fd5b6001600081548092919061032c90611244565b91905055506040518060a00160405280600154815260200184815260200183600281111561035d5761035c611036565b5b815260200160011515815260200160011515815250600360003373ffffffffffffffffffffffffffffffffffffffff1673ffffffffffffffffffffffffffffffffffffffff1681526020019081526020016000206000820151816000015560208201518160010190805190602001906103d7929190610a1f565b5060408201518160020160006101000a81548160ff0219169083600281111561040357610402611036565b5b021790555060608201518160020160016101000a81548160ff02191690831515021790555060808201518160020160026101000a81548160ff0219169083151502179055509050507fd2f7b23eb8037a62d84c53363fde3b576ec32f2b75f40d359622ac551e3d691060015484846040516104809392919061128c565b60405180910390a1505050565b6000600360003373ffffffffffffffffffffffffffffffffffffffff1673ffffffffffffffffffffffffffffffffffffffff1681526020019081526020016000206040518060a0016040529081600082015481526020016001820180546104f3906112f9565b80601f016020809104026020016040519081016040528092919081815260200182805461051f906112f9565b801561056c5780601f106105415761010080835404028352916020019161056c565b820191906000526020600020905b81548152906001019060200180831161054f57829003601f168201915b505050505081526020016002820160009054906101000a900460ff16600281111561059a57610599611036565b5b60028111156105ac576105ab611036565b5b81526020016002820160019054906101000a900460ff161515151581526020016002820160029054906101000a900460ff161515151581525050905080606001516105f657600080fd5b6000816060019015159081151581525050600081608001901515908115158152505080600360003373ffffffffffffffffffffffffffffffffffffffff1673ffffffffffffffffffffffffffffffffffffffff16815260200190815260200160002060008201518160000155602082015181600101908051906020019061067e929190610a1f565b5060408201518160020160006101000a81548160ff021916908360028111156106aa576106a9611036565b5b021790555060608201518160020160016101000a81548160ff02191690831515021790555060808201518160020160026101000a81548160ff0219169083151502179055509050507fa7af9fd1f87c93fa697ed737f6da410c3ce677e59f4890a0bcec329b66b8961a8160000151826020015183604001516040516107319392919061128c565b60405180910390a150565b600360003373ffffffffffffffffffffffffffffffffffffffff1673ffffffffffffffffffffffffffffffffffffffff16815260200190815260200160002060020160019054906101000a900460ff16801561080b5750600060028111156107a7576107a6611036565b5b600360003373ffffffffffffffffffffffffffffffffffffffff1673ffffffffffffffffffffffffffffffffffffffff16815260200190815260200160002060020160009054906101000a900460ff16600281111561080957610808611036565b5b145b61084a576040517f08c379a000000000000000000000000000000000000000000000000000000000815260040161084190611376565b60405180910390fd5b805182511461088e576040517f08c379a000000000000000000000000000000000000000000000000000000000815260040161088590611408565b60405180910390fd5b60005b8251811015610928578281815181106108ad576108ac611428565b5b602002602001015173ffffffffffffffffffffffffffffffffffffffff166108fc8383815181106108e1576108e0611428565b5b60200260200101519081150290604051600060405180830381858888f19350505050158015610914573d6000803e3d6000fd5b50808061092090611244565b915050610891565b50476000819055505050565b600360205280600052604060002060009150905080600001549080600101805461095d906112f9565b80601f0160208091040260200160405190810160405280929190818152602001828054610989906112f9565b80156109d65780601f106109ab576101008083540402835291602001916109d6565b820191906000526020600020905b8154815290600101906020018083116109b957829003601f168201915b5050505050908060020160009054906101000a900460ff16908060020160019054906101000a900460ff16908060020160029054906101000a900460ff16905085565b60005481565b828054610a2b906112f9565b90600052602060002090601f016020900481019282610a4d5760008555610a94565b82601f10610a6657805160ff1916838001178555610a94565b82800160010185558215610a94579182015b82811115610a93578251825591602001919060010190610a78565b5b509050610aa19190610aa5565b5090565b5b80821115610abe576000816000905550600101610aa6565b5090565b6000604051905090565b600080fd5b600080fd5b600080fd5b600080fd5b6000601f19601f8301169050919050565b7f4e487b7100000000000000000000000000000000000000000000000000000000600052604160045260246000fd5b610b2982610ae0565b810181811067ffffffffffffffff82111715610b4857610b47610af1565b5b80604052505050565b6000610b5b610ac2565b9050610b678282610b20565b919050565b600067ffffffffffffffff821115610b8757610b86610af1565b5b610b9082610ae0565b9050602081019050919050565b82818337600083830152505050565b6000610bbf610bba84610b6c565b610b51565b905082815260208101848484011115610bdb57610bda610adb565b5b610be6848285610b9d565b509392505050565b600082601f830112610c0357610c02610ad6565b5b8135610c13848260208601610bac565b91505092915050565b60038110610c2957600080fd5b50565b600081359050610c3b81610c1c565b92915050565b60008060408385031215610c5857610c57610acc565b5b600083013567ffffffffffffffff811115610c7657610c75610ad1565b5b610c8285828601610bee565b9250506020610c9385828601610c2c565b9150509250929050565b600067ffffffffffffffff821115610cb857610cb7610af1565b5b602082029050602081019050919050565b600080fd5b600073ffffffffffffffffffffffffffffffffffffffff82169050919050565b6000610cf982610cce565b9050919050565b610d0981610cee565b8114610d1457600080fd5b50565b600081359050610d2681610d00565b92915050565b6000610d3f610d3a84610c9d565b610b51565b90508083825260208201905060208402830185811115610d6257610d61610cc9565b5b835b81811015610d8b5780610d778882610d17565b845260208401935050602081019050610d64565b5050509392505050565b600082601f830112610daa57610da9610ad6565b5b8135610dba848260208601610d2c565b91505092915050565b600067ffffffffffffffff821115610dde57610ddd610af1565b5b602082029050602081019050919050565b6000819050919050565b610e0281610def565b8114610e0d57600080fd5b50565b600081359050610e1f81610df9565b92915050565b6000610e38610e3384610dc3565b610b51565b90508083825260208201905060208402830185811115610e5b57610e5a610cc9565b5b835b81811015610e845780610e708882610e10565b845260208401935050602081019050610e5d565b5050509392505050565b600082601f830112610ea357610ea2610ad6565b5b8135610eb3848260208601610e25565b91505092915050565b60008060408385031215610ed357610ed2610acc565b5b600083013567ffffffffffffffff811115610ef157610ef0610ad1565b5b610efd85828601610d95565b925050602083013567ffffffffffffffff811115610f1e57610f1d610ad1565b5b610f2a85828601610e8e565b9150509250929050565b6000610f3f82610cce565b9050919050565b610f4f81610f34565b8114610f5a57600080fd5b50565b600081359050610f6c81610f46565b92915050565b600060208284031215610f8857610f87610acc565b5b6000610f9684828501610f5d565b91505092915050565b610fa881610def565b82525050565b600081519050919050565b600082825260208201905092915050565b60005b83811015610fe8578082015181840152602081019050610fcd565b83811115610ff7576000848401525b50505050565b600061100882610fae565b6110128185610fb9565b9350611022818560208601610fca565b61102b81610ae0565b840191505092915050565b7f4e487b7100000000000000000000000000000000000000000000000000000000600052602160045260246000fd5b6003811061107657611075611036565b5b50565b600081905061108782611065565b919050565b600061109782611079565b9050919050565b6110a78161108c565b82525050565b60008115159050919050565b6110c2816110ad565b82525050565b600060a0820190506110dd6000830188610f9f565b81810360208301526110ef8187610ffd565b90506110fe604083018661109e565b61110b60608301856110b9565b61111860808301846110b9565b9695505050505050565b60006020820190506111376000830184610f9f565b92915050565b7f4e6f7420612064656c697665727920706572736f6e0000000000000000000000600082015250565b6000611173601583610fb9565b915061117e8261113d565b602082019050919050565b600060208201905081810360008301526111a281611166565b9050919050565b7f4e616d652063616e6e6f7420626520656d707479000000000000000000000000600082015250565b60006111df601483610fb9565b91506111ea826111a9565b602082019050919050565b6000602082019050818103600083015261120e816111d2565b9050919050565b7f4e487b7100000000000000000000000000000000000000000000000000000000600052601160045260246000fd5b600061124f82610def565b91507fffffffffffffffffffffffffffffffffffffffffffffffffffffffffffffffff820361128157611280611215565b5b600182019050919050565b60006060820190506112a16000830186610f9f565b81810360208301526112b38185610ffd565b90506112c2604083018461109e565b949350505050565b7f4e487b7100000000000000000000000000000000000000000000000000000000600052602260045260246000fd5b6000600282049050600182168061131157607f821691505b602082108103611324576113236112ca565b5b50919050565b7f4e6f742061206275796572000000000000000000000000000000000000000000600082015250565b6000611360600b83610fb9565b915061136b8261132a565b602082019050919050565b6000602082019050818103600083015261138f81611353565b9050919050565b7f53656c6c65727320616e64206d6f6e657920646f65736e2774206d617463682060008201527f6c656e6774680000000000000000000000000000000000000000000000000000602082015250565b60006113f2602683610fb9565b91506113fd82611396565b604082019050919050565b60006020820190508181036000830152611421816113e5565b9050919050565b7f4e487b7100000000000000000000000000000000000000000000000000000000600052603260045260246000fdfea2646970667358221220c4a485715f9bbdfc276ab7d74a95eabdbf0e4410805c1e7de37d6776ef11368064736f6c634300080d0033",
  "immutableReferences": {},
  "source": "//SPDX-License-Identifier: UNLICENSED\npragma solidity >=0.4.22 <=0.9.0;\ncontract BFEv4 {\n    \n    enum Type {Buyer, Seller, DeliveryPerson}\n    struct User{\n        uint id;\n        string name;\n        Type userType;\n        bool reg;\n        bool available;\n    }\n\n    uint public balance;\n    uint uid;\n    uint mid;\n    mapping(address => User) public users;\n\n    event UserRegistered(uint bid, string bname, Type userType);\n    event UserUnregistered(uint bid, string bname, Type userType);\n\n    modifier onlySeller(){\n        require(users[msg.sender].reg && users[msg.sender].userType == Type.Seller, \"Not a seller\");\n        _;\n    }\n\n    modifier onlyBuyer(){\n        require(users[msg.sender].reg && users[msg.sender].userType == Type.Buyer, \"Not a buyer\");\n        _;\n    }\n\n    modifier onlyDeliveryPerson{\n        require(users[msg.sender].reg && users[msg.sender].userType == Type.DeliveryPerson, \"Not a delivery person\");\n        _;\n    }\n\n    modifier validUserType(Type userType){\n        require(userType <= Type.DeliveryPerson);\n        _;\n    }\n\n    function UserReg(string memory name, Type userType) public validUserType(userType){\n        require(bytes(name).length > 0, \"Name cannot be empty\");\n        uid ++;\n        users[msg.sender] = User(uid, name, userType, true, true);\n        emit UserRegistered(uid, name, userType);\n    }\n\n    function UserUnreg() public{\n        User memory user = users[msg.sender];\n        require(user.reg);\n        user.reg = false;\n        user.available = false;\n        users[msg.sender] = user;\n        emit UserUnregistered(user.id, user.name, user.userType);\n    }\n\n    function DelvPersonAvail() public onlyDeliveryPerson{\n        // require(!users[msg.sender].available);\n        users[msg.sender].available = true;\n    }\n\n\n    function Buy(address payable[] memory sellers, uint[] memory money) public payable onlyBuyer{\n        require(sellers.length == money.length, \"Sellers and money doesn't match length\");\n        for (uint i = 0; i < sellers.length; i ++)\n            sellers[i].transfer(money[i]);\n        balance = address(this).balance;\n    }\n}",
  "sourcePath": "/Users/hipswan/Desktop/projects/marketplace/foodex-contract/contracts/BFEv4.sol",
  "compiler": {
    "name": "solc",
    "version": "0.8.13+commit.abaa5c0e.Emscripten.clang"
  },
  "schemaVersion": "3.4.6",
  "updatedAt": "2022-04-15T08:45:02.474Z",
  "networkType": "ethereum",
  "devdoc": {
    "kind": "dev",
    "methods": {},
    "version": 1
  },
  "userdoc": {
    "kind": "user",
    "methods": {},
    "version": 1
  }
}