{
  "contractName": "BFEv4",
  "abi": [
    {
      "anonymous": false,
      "inputs": [
        {
          "indexed": false,
          "internalType": "address",
          "name": "buyer",
          "type": "address"
        },
        {
          "indexed": false,
          "internalType": "uint256",
          "name": "hashOfOrder",
          "type": "uint256"
        }
      ],
      "name": "FoodBought",
      "type": "event"
    },
    {
      "anonymous": false,
      "inputs": [
        {
          "indexed": false,
          "internalType": "uint256",
          "name": "bid",
          "type": "uint256"
        },
        {
          "indexed": false,
          "internalType": "string",
          "name": "bname",
          "type": "string"
        },
        {
          "indexed": false,
          "internalType": "enum BFEv4.Type",
          "name": "userType",
          "type": "uint8"
        }
      ],
      "name": "UserRegistered",
      "type": "event"
    },
    {
      "anonymous": false,
      "inputs": [
        {
          "indexed": false,
          "internalType": "uint256",
          "name": "bid",
          "type": "uint256"
        },
        {
          "indexed": false,
          "internalType": "string",
          "name": "bname",
          "type": "string"
        },
        {
          "indexed": false,
          "internalType": "enum BFEv4.Type",
          "name": "userType",
          "type": "uint8"
        }
      ],
      "name": "UserUnregistered",
      "type": "event"
    },
    {
      "inputs": [],
      "name": "balance",
      "outputs": [
        {
          "internalType": "uint256",
          "name": "",
          "type": "uint256"
        }
      ],
      "stateMutability": "view",
      "type": "function",
      "constant": true
    },
    {
      "inputs": [
        {
          "internalType": "address",
          "name": "",
          "type": "address"
        }
      ],
      "name": "users",
      "outputs": [
        {
          "internalType": "uint256",
          "name": "id",
          "type": "uint256"
        },
        {
          "internalType": "string",
          "name": "name",
          "type": "string"
        },
        {
          "internalType": "enum BFEv4.Type",
          "name": "userType",
          "type": "uint8"
        },
        {
          "internalType": "bool",
          "name": "reg",
          "type": "bool"
        }
      ],
      "stateMutability": "view",
      "type": "function",
      "constant": true
    },
    {
      "inputs": [
        {
          "internalType": "string",
          "name": "name",
          "type": "string"
        },
        {
          "internalType": "enum BFEv4.Type",
          "name": "userType",
          "type": "uint8"
        }
      ],
      "name": "UserReg",
      "outputs": [],
      "stateMutability": "nonpayable",
      "type": "function"
    },
    {
      "inputs": [],
      "name": "UserUnreg",
      "outputs": [],
      "stateMutability": "nonpayable",
      "type": "function"
    },
    {
      "inputs": [
        {
          "internalType": "uint256",
          "name": "hashOfOrder",
          "type": "uint256"
        }
      ],
      "name": "Order",
      "outputs": [],
      "stateMutability": "payable",
      "type": "function",
      "payable": true
    },
    {
      "inputs": [
        {
          "internalType": "bytes32[]",
          "name": "sellersamount",
          "type": "bytes32[]"
        }
      ],
      "name": "SettlePayment",
      "outputs": [],
      "stateMutability": "payable",
      "type": "function",
      "payable": true
    }
  ],
  "bytecode": "0x608060405234801561001057600080fd5b50611120806100206000396000f3fe6080604052600436106100555760003560e01c80633d8c3a1f1461005a5780634ef4760e146100835780637837c2921461009a578063a87430ba146100b6578063b69ef8a8146100f6578063f0ebeaeb14610121575b600080fd5b34801561006657600080fd5b50610081600480360381019061007c9190610a75565b61013d565b005b34801561008f57600080fd5b506100986102fe565b005b6100b460048036038101906100af9190610b07565b610561565b005b3480156100c257600080fd5b506100dd60048036038101906100d89190610b92565b6106b2565b6040516100ed9493929190610ce8565b60405180910390f35b34801561010257600080fd5b5061010b610784565b6040516101189190610d34565b60405180910390f35b61013b60048036038101906101369190610e4d565b61078a565b005b8060028081111561015157610150610c56565b5b81600281111561016457610163610c56565b5b111561016f57600080fd5b60008351116101b3576040517f08c379a00000000000000000000000000000000000000000000000000000000081526004016101aa90610ee2565b60405180910390fd5b600160008154809291906101c690610f31565b9190505550604051806080016040528060015481526020018481526020018360028111156101f7576101f6610c56565b5b815260200160011515815250600260003373ffffffffffffffffffffffffffffffffffffffff1673ffffffffffffffffffffffffffffffffffffffff168152602001908152602001600020600082015181600001556020820151816001019080519060200190610268929190610853565b5060408201518160020160006101000a81548160ff0219169083600281111561029457610293610c56565b5b021790555060608201518160020160016101000a81548160ff0219169083151502179055509050507fd2f7b23eb8037a62d84c53363fde3b576ec32f2b75f40d359622ac551e3d691060015484846040516102f193929190610f79565b60405180910390a1505050565b6000600260003373ffffffffffffffffffffffffffffffffffffffff1673ffffffffffffffffffffffffffffffffffffffff1681526020019081526020016000206040518060800160405290816000820154815260200160018201805461036490610fe6565b80601f016020809104026020016040519081016040528092919081815260200182805461039090610fe6565b80156103dd5780601f106103b2576101008083540402835291602001916103dd565b820191906000526020600020905b8154815290600101906020018083116103c057829003601f168201915b505050505081526020016002820160009054906101000a900460ff16600281111561040b5761040a610c56565b5b600281111561041d5761041c610c56565b5b81526020016002820160019054906101000a900460ff1615151515815250509050806060015161044c57600080fd5b600081606001901515908115158152505080600260003373ffffffffffffffffffffffffffffffffffffffff1673ffffffffffffffffffffffffffffffffffffffff1681526020019081526020016000206000820151816000015560208201518160010190805190602001906104c3929190610853565b5060408201518160020160006101000a81548160ff021916908360028111156104ef576104ee610c56565b5b021790555060608201518160020160016101000a81548160ff0219169083151502179055509050507fa7af9fd1f87c93fa697ed737f6da410c3ce677e59f4890a0bcec329b66b8961a81600001518260200151836040015160405161055693929190610f79565b60405180910390a150565b600260003373ffffffffffffffffffffffffffffffffffffffff1673ffffffffffffffffffffffffffffffffffffffff16815260200190815260200160002060020160019054906101000a900460ff1680156106305750600060028111156105cc576105cb610c56565b5b600260003373ffffffffffffffffffffffffffffffffffffffff1673ffffffffffffffffffffffffffffffffffffffff16815260200190815260200160002060020160009054906101000a900460ff16600281111561062e5761062d610c56565b5b145b61066f576040517f08c379a000000000000000000000000000000000000000000000000000000000815260040161066690611063565b60405180910390fd5b476000819055507fdda270714e0e5f82fc67bbcac54f752aef692a52a285dd5bf74f9b755b89d78c33826040516106a7929190611092565b60405180910390a150565b60026020528060005260406000206000915090508060000154908060010180546106db90610fe6565b80601f016020809104026020016040519081016040528092919081815260200182805461070790610fe6565b80156107545780601f1061072957610100808354040283529160200191610754565b820191906000526020600020905b81548152906001019060200180831161073757829003601f168201915b5050505050908060020160009054906101000a900460ff16908060020160019054906101000a900460ff16905084565b60005481565b60005b815181101561084857600060608383815181106107ad576107ac6110bb565b5b6020026020010151901c60001c905060008383815181106107d1576107d06110bb565b5b602002602001015160001c6bffffffffffffffffffffffff1690508173ffffffffffffffffffffffffffffffffffffffff166108fc829081150290604051600060405180830381858888f19350505050158015610832573d6000803e3d6000fd5b505050808061084090610f31565b91505061078d565b504760008190555050565b82805461085f90610fe6565b90600052602060002090601f01602090048101928261088157600085556108c8565b82601f1061089a57805160ff19168380011785556108c8565b828001600101855582156108c8579182015b828111156108c75782518255916020019190600101906108ac565b5b5090506108d591906108d9565b5090565b5b808211156108f25760008160009055506001016108da565b5090565b6000604051905090565b600080fd5b600080fd5b600080fd5b600080fd5b6000601f19601f8301169050919050565b7f4e487b7100000000000000000000000000000000000000000000000000000000600052604160045260246000fd5b61095d82610914565b810181811067ffffffffffffffff8211171561097c5761097b610925565b5b80604052505050565b600061098f6108f6565b905061099b8282610954565b919050565b600067ffffffffffffffff8211156109bb576109ba610925565b5b6109c482610914565b9050602081019050919050565b82818337600083830152505050565b60006109f36109ee846109a0565b610985565b905082815260208101848484011115610a0f57610a0e61090f565b5b610a1a8482856109d1565b509392505050565b600082601f830112610a3757610a3661090a565b5b8135610a478482602086016109e0565b91505092915050565b60038110610a5d57600080fd5b50565b600081359050610a6f81610a50565b92915050565b60008060408385031215610a8c57610a8b610900565b5b600083013567ffffffffffffffff811115610aaa57610aa9610905565b5b610ab685828601610a22565b9250506020610ac785828601610a60565b9150509250929050565b6000819050919050565b610ae481610ad1565b8114610aef57600080fd5b50565b600081359050610b0181610adb565b92915050565b600060208284031215610b1d57610b1c610900565b5b6000610b2b84828501610af2565b91505092915050565b600073ffffffffffffffffffffffffffffffffffffffff82169050919050565b6000610b5f82610b34565b9050919050565b610b6f81610b54565b8114610b7a57600080fd5b50565b600081359050610b8c81610b66565b92915050565b600060208284031215610ba857610ba7610900565b5b6000610bb684828501610b7d565b91505092915050565b610bc881610ad1565b82525050565b600081519050919050565b600082825260208201905092915050565b60005b83811015610c08578082015181840152602081019050610bed565b83811115610c17576000848401525b50505050565b6000610c2882610bce565b610c328185610bd9565b9350610c42818560208601610bea565b610c4b81610914565b840191505092915050565b7f4e487b7100000000000000000000000000000000000000000000000000000000600052602160045260246000fd5b60038110610c9657610c95610c56565b5b50565b6000819050610ca782610c85565b919050565b6000610cb782610c99565b9050919050565b610cc781610cac565b82525050565b60008115159050919050565b610ce281610ccd565b82525050565b6000608082019050610cfd6000830187610bbf565b8181036020830152610d0f8186610c1d565b9050610d1e6040830185610cbe565b610d2b6060830184610cd9565b95945050505050565b6000602082019050610d496000830184610bbf565b92915050565b600067ffffffffffffffff821115610d6a57610d69610925565b5b602082029050602081019050919050565b600080fd5b6000819050919050565b610d9381610d80565b8114610d9e57600080fd5b50565b600081359050610db081610d8a565b92915050565b6000610dc9610dc484610d4f565b610985565b90508083825260208201905060208402830185811115610dec57610deb610d7b565b5b835b81811015610e155780610e018882610da1565b845260208401935050602081019050610dee565b5050509392505050565b600082601f830112610e3457610e3361090a565b5b8135610e44848260208601610db6565b91505092915050565b600060208284031215610e6357610e62610900565b5b600082013567ffffffffffffffff811115610e8157610e80610905565b5b610e8d84828501610e1f565b91505092915050565b7f4e616d652063616e6e6f7420626520656d707479000000000000000000000000600082015250565b6000610ecc601483610bd9565b9150610ed782610e96565b602082019050919050565b60006020820190508181036000830152610efb81610ebf565b9050919050565b7f4e487b7100000000000000000000000000000000000000000000000000000000600052601160045260246000fd5b6000610f3c82610ad1565b91507fffffffffffffffffffffffffffffffffffffffffffffffffffffffffffffffff8203610f6e57610f6d610f02565b5b600182019050919050565b6000606082019050610f8e6000830186610bbf565b8181036020830152610fa08185610c1d565b9050610faf6040830184610cbe565b949350505050565b7f4e487b7100000000000000000000000000000000000000000000000000000000600052602260045260246000fd5b60006002820490506001821680610ffe57607f821691505b60208210810361101157611010610fb7565b5b50919050565b7f4e6f742061206275796572000000000000000000000000000000000000000000600082015250565b600061104d600b83610bd9565b915061105882611017565b602082019050919050565b6000602082019050818103600083015261107c81611040565b9050919050565b61108c81610b54565b82525050565b60006040820190506110a76000830185611083565b6110b46020830184610bbf565b9392505050565b7f4e487b7100000000000000000000000000000000000000000000000000000000600052603260045260246000fdfea2646970667358221220cb46c3adf407be7135c2e674202a08b77f6822e0c8c2fcab999479a696c2ab2964736f6c634300080d0033",
  "immutableReferences": {},
  "source": "//SPDX-License-Identifier: UNLICENSED\npragma solidity >=0.4.22 <=0.9.0;\ncontract BFEv4 {\n    \n    enum Type {Buyer, Seller, DeliveryPerson}\n    struct User{\n        uint id;\n        string name;\n        Type userType;\n        bool reg;\n    }\n\n    uint public balance;\n    uint uid;\n    mapping(address => User) public users;\n\n    event UserRegistered(uint bid, string bname, Type userType);\n    event UserUnregistered(uint bid, string bname, Type userType);\n    event FoodBought(address buyer, uint hashOfOrder);\n\n\n    modifier onlyBuyer(){\n        require(users[msg.sender].reg && users[msg.sender].userType == Type.Buyer, \"Not a buyer\");\n        _;\n    }\n\n\n    modifier validUserType(Type userType){\n        require(userType <= Type.DeliveryPerson);\n        _;\n    }\n\n    function UserReg(string memory name, Type userType) public validUserType(userType){\n        require(bytes(name).length > 0, \"Name cannot be empty\");\n        uid ++;\n        users[msg.sender] = User(uid, name, userType, true);\n        emit UserRegistered(uid, name, userType);\n    }\n\n    function UserUnreg() public{\n        User memory user = users[msg.sender];\n        require(user.reg);\n        user.reg = false;\n        users[msg.sender] = user;\n        emit UserUnregistered(user.id, user.name, user.userType);\n    }\n\n\n    function Order(uint hashOfOrder) public payable onlyBuyer{\n        balance = address(this).balance;\n        emit FoodBought(msg.sender, hashOfOrder);\n    }\n\n    function SettlePayment(bytes32[] memory sellersamount) public payable{\n        for (uint i = 0; i < sellersamount.length; i ++){\n            address payable seller = payable(address(uint160(uint256(sellersamount[i] >> 96))));\n            uint amount = uint(uint96(uint256(sellersamount[i])));\n            seller.transfer(amount);\n        }\n        balance = address(this).balance;\n    }\n\n  \n}\n",
  "sourcePath": "/Users/hipswan/Desktop/projects/marketplace/foodex-contract/contracts/BFEv4.sol",
  "compiler": {
    "name": "solc",
    "version": "0.8.13+commit.abaa5c0e.Emscripten.clang"
  },
  "schemaVersion": "3.4.6",
  "updatedAt": "2022-04-18T03:37:56.927Z",
  "networkType": "ethereum",
  "devdoc": {
    "kind": "dev",
    "methods": {},
    "version": 1
  },
  "userdoc": {
    "kind": "user",
    "methods": {},
    "version": 1
  }
}