{
  "contractName": "BFEv4",
  "abi": [
    {
      "inputs": [
        {
          "internalType": "address",
          "name": "tAdd",
          "type": "address"
        }
      ],
      "stateMutability": "nonpayable",
      "type": "constructor"
    },
    {
      "anonymous": false,
      "inputs": [
        {
          "indexed": false,
          "internalType": "address",
          "name": "buyer",
          "type": "address"
        },
        {
          "indexed": false,
          "internalType": "uint256",
          "name": "hashOfOrder",
          "type": "uint256"
        }
      ],
      "name": "FoodBought",
      "type": "event"
    },
    {
      "anonymous": false,
      "inputs": [
        {
          "indexed": false,
          "internalType": "uint256",
          "name": "bid",
          "type": "uint256"
        },
        {
          "indexed": false,
          "internalType": "string",
          "name": "bname",
          "type": "string"
        },
        {
          "indexed": false,
          "internalType": "enum BFEv4.Type",
          "name": "userType",
          "type": "uint8"
        }
      ],
      "name": "UserRegistered",
      "type": "event"
    },
    {
      "anonymous": false,
      "inputs": [
        {
          "indexed": false,
          "internalType": "uint256",
          "name": "bid",
          "type": "uint256"
        },
        {
          "indexed": false,
          "internalType": "string",
          "name": "bname",
          "type": "string"
        },
        {
          "indexed": false,
          "internalType": "enum BFEv4.Type",
          "name": "userType",
          "type": "uint8"
        }
      ],
      "name": "UserUnregistered",
      "type": "event"
    },
    {
      "inputs": [],
      "name": "balance",
      "outputs": [
        {
          "internalType": "uint256",
          "name": "",
          "type": "uint256"
        }
      ],
      "stateMutability": "view",
      "type": "function",
      "constant": true
    },
    {
      "inputs": [],
      "name": "swd",
      "outputs": [
        {
          "internalType": "contract ERC20MYN",
          "name": "",
          "type": "address"
        }
      ],
      "stateMutability": "view",
      "type": "function",
      "constant": true
    },
    {
      "inputs": [
        {
          "internalType": "address",
          "name": "",
          "type": "address"
        }
      ],
      "name": "users",
      "outputs": [
        {
          "internalType": "uint256",
          "name": "id",
          "type": "uint256"
        },
        {
          "internalType": "string",
          "name": "name",
          "type": "string"
        },
        {
          "internalType": "enum BFEv4.Type",
          "name": "userType",
          "type": "uint8"
        },
        {
          "internalType": "bool",
          "name": "reg",
          "type": "bool"
        }
      ],
      "stateMutability": "view",
      "type": "function",
      "constant": true
    },
    {
      "inputs": [],
      "name": "SwdBalance",
      "outputs": [
        {
          "internalType": "uint256",
          "name": "",
          "type": "uint256"
        }
      ],
      "stateMutability": "view",
      "type": "function",
      "constant": true
    },
    {
      "inputs": [
        {
          "internalType": "string",
          "name": "name",
          "type": "string"
        },
        {
          "internalType": "enum BFEv4.Type",
          "name": "userType",
          "type": "uint8"
        }
      ],
      "name": "UserReg",
      "outputs": [],
      "stateMutability": "nonpayable",
      "type": "function"
    },
    {
      "inputs": [],
      "name": "UserUnreg",
      "outputs": [],
      "stateMutability": "nonpayable",
      "type": "function"
    },
    {
      "inputs": [
        {
          "internalType": "uint256",
          "name": "hashOfOrder",
          "type": "uint256"
        },
        {
          "internalType": "uint256",
          "name": "numTokens",
          "type": "uint256"
        }
      ],
      "name": "Order",
      "outputs": [],
      "stateMutability": "payable",
      "type": "function",
      "payable": true
    },
    {
      "inputs": [
        {
          "internalType": "bytes32[]",
          "name": "sellersamount",
          "type": "bytes32[]"
        }
      ],
      "name": "SettlePayment",
      "outputs": [],
      "stateMutability": "nonpayable",
      "type": "function"
    }
  ],
  "bytecode": "0x60806040523480156200001157600080fd5b5060405162001a7638038062001a7683398181016040528101906200003791906200012a565b33600360006101000a81548173ffffffffffffffffffffffffffffffffffffffff021916908373ffffffffffffffffffffffffffffffffffffffff16021790555080600460006101000a81548173ffffffffffffffffffffffffffffffffffffffff021916908373ffffffffffffffffffffffffffffffffffffffff160217905550506200015c565b600080fd5b600073ffffffffffffffffffffffffffffffffffffffff82169050919050565b6000620000f282620000c5565b9050919050565b6200010481620000e5565b81146200011057600080fd5b50565b6000815190506200012481620000f9565b92915050565b600060208284031215620001435762000142620000c0565b5b6000620001538482850162000113565b91505092915050565b61190a806200016c6000396000f3fe60806040526004361061007b5760003560e01c8063a87430ba1161004e578063a87430ba14610116578063b69ef8a814610156578063be70e33d14610181578063f0ebeaeb1461019d5761007b565b806310653661146100805780633d8c3a1f146100ab5780634ef4760e146100d4578063a1811fda146100eb575b600080fd5b34801561008c57600080fd5b506100956101c6565b6040516100a29190610f29565b60405180910390f35b3480156100b757600080fd5b506100d260048036038101906100cd91906110c3565b6101ec565b005b3480156100e057600080fd5b506100e961047b565b005b3480156100f757600080fd5b5061010061083e565b60405161010d9190611138565b60405180910390f35b34801561012257600080fd5b5061013d60048036038101906101389190611191565b6108e1565b60405161014d94939291906112d8565b60405180910390f35b34801561016257600080fd5b5061016b6109b3565b6040516101789190611138565b60405180910390f35b61019b60048036038101906101969190611350565b6109b9565b005b3480156101a957600080fd5b506101c460048036038101906101bf919061148e565b610c49565b005b600460009054906101000a900473ffffffffffffffffffffffffffffffffffffffff1681565b80600280811115610200576101ff611246565b5b81600281111561021357610212611246565b5b111561021e57600080fd5b6000835111610262576040517f08c379a000000000000000000000000000000000000000000000000000000000815260040161025990611523565b60405180910390fd5b6001600081548092919061027590611572565b9190505550600460009054906101000a900473ffffffffffffffffffffffffffffffffffffffff1673ffffffffffffffffffffffffffffffffffffffff166323b872dd600360009054906101000a900473ffffffffffffffffffffffffffffffffffffffff16336801158e460913d000006040518463ffffffff1660e01b815260040161030493929190611604565b6020604051808303816000875af1158015610323573d6000803e3d6000fd5b505050506040513d601f19601f820116820180604052508101906103479190611667565b506040518060800160405280600154815260200184815260200183600281111561037457610373611246565b5b815260200160011515815250600260003373ffffffffffffffffffffffffffffffffffffffff1673ffffffffffffffffffffffffffffffffffffffff1681526020019081526020016000206000820151816000015560208201518160010190805190602001906103e5929190610e07565b5060408201518160020160006101000a81548160ff0219169083600281111561041157610410611246565b5b021790555060608201518160020160016101000a81548160ff0219169083151502179055509050507fd2f7b23eb8037a62d84c53363fde3b576ec32f2b75f40d359622ac551e3d6910600154848460405161046e93929190611694565b60405180910390a1505050565b6000600260003373ffffffffffffffffffffffffffffffffffffffff1673ffffffffffffffffffffffffffffffffffffffff168152602001908152602001600020604051806080016040529081600082015481526020016001820180546104e190611701565b80601f016020809104026020016040519081016040528092919081815260200182805461050d90611701565b801561055a5780601f1061052f5761010080835404028352916020019161055a565b820191906000526020600020905b81548152906001019060200180831161053d57829003601f168201915b505050505081526020016002820160009054906101000a900460ff16600281111561058857610587611246565b5b600281111561059a57610599611246565b5b81526020016002820160019054906101000a900460ff161515151581525050905080606001516105c957600080fd5b600460009054906101000a900473ffffffffffffffffffffffffffffffffffffffff1673ffffffffffffffffffffffffffffffffffffffff166323b872dd33600360009054906101000a900473ffffffffffffffffffffffffffffffffffffffff16600460009054906101000a900473ffffffffffffffffffffffffffffffffffffffff1673ffffffffffffffffffffffffffffffffffffffff166370a08231336040518263ffffffff1660e01b81526004016106869190611732565b602060405180830381865afa1580156106a3573d6000803e3d6000fd5b505050506040513d601f19601f820116820180604052508101906106c79190611762565b6040518463ffffffff1660e01b81526004016106e59392919061178f565b6020604051808303816000875af1158015610704573d6000803e3d6000fd5b505050506040513d601f19601f820116820180604052508101906107289190611667565b50600081606001901515908115158152505080600260003373ffffffffffffffffffffffffffffffffffffffff1673ffffffffffffffffffffffffffffffffffffffff1681526020019081526020016000206000820151816000015560208201518160010190805190602001906107a0929190610e07565b5060408201518160020160006101000a81548160ff021916908360028111156107cc576107cb611246565b5b021790555060608201518160020160016101000a81548160ff0219169083151502179055509050507fa7af9fd1f87c93fa697ed737f6da410c3ce677e59f4890a0bcec329b66b8961a81600001518260200151836040015160405161083393929190611694565b60405180910390a150565b6000600460009054906101000a900473ffffffffffffffffffffffffffffffffffffffff1673ffffffffffffffffffffffffffffffffffffffff166370a08231336040518263ffffffff1660e01b815260040161089b9190611732565b602060405180830381865afa1580156108b8573d6000803e3d6000fd5b505050506040513d601f19601f820116820180604052508101906108dc9190611762565b905090565b600260205280600052604060002060009150905080600001549080600101805461090a90611701565b80601f016020809104026020016040519081016040528092919081815260200182805461093690611701565b80156109835780601f1061095857610100808354040283529160200191610983565b820191906000526020600020905b81548152906001019060200180831161096657829003601f168201915b5050505050908060020160009054906101000a900460ff16908060020160019054906101000a900460ff16905084565b60005481565b600260003373ffffffffffffffffffffffffffffffffffffffff1673ffffffffffffffffffffffffffffffffffffffff16815260200190815260200160002060020160019054906101000a900460ff168015610a88575060006002811115610a2457610a23611246565b5b600260003373ffffffffffffffffffffffffffffffffffffffff1673ffffffffffffffffffffffffffffffffffffffff16815260200190815260200160002060020160009054906101000a900460ff166002811115610a8657610a85611246565b5b145b610ac7576040517f08c379a0000000000000000000000000000000000000000000000000000000008152600401610abe90611812565b60405180910390fd5b600460009054906101000a900473ffffffffffffffffffffffffffffffffffffffff1673ffffffffffffffffffffffffffffffffffffffff166370a08231306040518263ffffffff1660e01b8152600401610b229190611732565b602060405180830381865afa158015610b3f573d6000803e3d6000fd5b505050506040513d601f19601f82011682018060405250810190610b639190611762565b600081905550600460009054906101000a900473ffffffffffffffffffffffffffffffffffffffff1673ffffffffffffffffffffffffffffffffffffffff166323b872dd3330846040518463ffffffff1660e01b8152600401610bc89392919061178f565b6020604051808303816000875af1158015610be7573d6000803e3d6000fd5b505050506040513d601f19601f82011682018060405250810190610c0b9190611667565b507fdda270714e0e5f82fc67bbcac54f752aef692a52a285dd5bf74f9b755b89d78c3383604051610c3d929190611832565b60405180910390a15050565b60005b8151811015610d615760006060838381518110610c6c57610c6b61185b565b5b6020026020010151901c60001c90506000838381518110610c9057610c8f61185b565b5b602002602001015160001c6bffffffffffffffffffffffff169050600460009054906101000a900473ffffffffffffffffffffffffffffffffffffffff1673ffffffffffffffffffffffffffffffffffffffff1663a9059cbb83836040518363ffffffff1660e01b8152600401610d089291906118ab565b6020604051808303816000875af1158015610d27573d6000803e3d6000fd5b505050506040513d601f19601f82011682018060405250810190610d4b9190611667565b5050508080610d5990611572565b915050610c4c565b50600460009054906101000a900473ffffffffffffffffffffffffffffffffffffffff1673ffffffffffffffffffffffffffffffffffffffff166370a08231306040518263ffffffff1660e01b8152600401610dbd9190611732565b602060405180830381865afa158015610dda573d6000803e3d6000fd5b505050506040513d601f19601f82011682018060405250810190610dfe9190611762565b60008190555050565b828054610e1390611701565b90600052602060002090601f016020900481019282610e355760008555610e7c565b82601f10610e4e57805160ff1916838001178555610e7c565b82800160010185558215610e7c579182015b82811115610e7b578251825591602001919060010190610e60565b5b509050610e899190610e8d565b5090565b5b80821115610ea6576000816000905550600101610e8e565b5090565b600073ffffffffffffffffffffffffffffffffffffffff82169050919050565b6000819050919050565b6000610eef610eea610ee584610eaa565b610eca565b610eaa565b9050919050565b6000610f0182610ed4565b9050919050565b6000610f1382610ef6565b9050919050565b610f2381610f08565b82525050565b6000602082019050610f3e6000830184610f1a565b92915050565b6000604051905090565b600080fd5b600080fd5b600080fd5b600080fd5b6000601f19601f8301169050919050565b7f4e487b7100000000000000000000000000000000000000000000000000000000600052604160045260246000fd5b610fab82610f62565b810181811067ffffffffffffffff82111715610fca57610fc9610f73565b5b80604052505050565b6000610fdd610f44565b9050610fe98282610fa2565b919050565b600067ffffffffffffffff82111561100957611008610f73565b5b61101282610f62565b9050602081019050919050565b82818337600083830152505050565b600061104161103c84610fee565b610fd3565b90508281526020810184848401111561105d5761105c610f5d565b5b61106884828561101f565b509392505050565b600082601f83011261108557611084610f58565b5b813561109584826020860161102e565b91505092915050565b600381106110ab57600080fd5b50565b6000813590506110bd8161109e565b92915050565b600080604083850312156110da576110d9610f4e565b5b600083013567ffffffffffffffff8111156110f8576110f7610f53565b5b61110485828601611070565b9250506020611115858286016110ae565b9150509250929050565b6000819050919050565b6111328161111f565b82525050565b600060208201905061114d6000830184611129565b92915050565b600061115e82610eaa565b9050919050565b61116e81611153565b811461117957600080fd5b50565b60008135905061118b81611165565b92915050565b6000602082840312156111a7576111a6610f4e565b5b60006111b58482850161117c565b91505092915050565b600081519050919050565b600082825260208201905092915050565b60005b838110156111f85780820151818401526020810190506111dd565b83811115611207576000848401525b50505050565b6000611218826111be565b61122281856111c9565b93506112328185602086016111da565b61123b81610f62565b840191505092915050565b7f4e487b7100000000000000000000000000000000000000000000000000000000600052602160045260246000fd5b6003811061128657611285611246565b5b50565b600081905061129782611275565b919050565b60006112a782611289565b9050919050565b6112b78161129c565b82525050565b60008115159050919050565b6112d2816112bd565b82525050565b60006080820190506112ed6000830187611129565b81810360208301526112ff818661120d565b905061130e60408301856112ae565b61131b60608301846112c9565b95945050505050565b61132d8161111f565b811461133857600080fd5b50565b60008135905061134a81611324565b92915050565b6000806040838503121561136757611366610f4e565b5b60006113758582860161133b565b92505060206113868582860161133b565b9150509250929050565b600067ffffffffffffffff8211156113ab576113aa610f73565b5b602082029050602081019050919050565b600080fd5b6000819050919050565b6113d4816113c1565b81146113df57600080fd5b50565b6000813590506113f1816113cb565b92915050565b600061140a61140584611390565b610fd3565b9050808382526020820190506020840283018581111561142d5761142c6113bc565b5b835b81811015611456578061144288826113e2565b84526020840193505060208101905061142f565b5050509392505050565b600082601f83011261147557611474610f58565b5b81356114858482602086016113f7565b91505092915050565b6000602082840312156114a4576114a3610f4e565b5b600082013567ffffffffffffffff8111156114c2576114c1610f53565b5b6114ce84828501611460565b91505092915050565b7f4e616d652063616e6e6f7420626520656d707479000000000000000000000000600082015250565b600061150d6014836111c9565b9150611518826114d7565b602082019050919050565b6000602082019050818103600083015261153c81611500565b9050919050565b7f4e487b7100000000000000000000000000000000000000000000000000000000600052601160045260246000fd5b600061157d8261111f565b91507fffffffffffffffffffffffffffffffffffffffffffffffffffffffffffffffff82036115af576115ae611543565b5b600182019050919050565b6115c381611153565b82525050565b6000819050919050565b60006115ee6115e96115e4846115c9565b610eca565b61111f565b9050919050565b6115fe816115d3565b82525050565b600060608201905061161960008301866115ba565b61162660208301856115ba565b61163360408301846115f5565b949350505050565b611644816112bd565b811461164f57600080fd5b50565b6000815190506116618161163b565b92915050565b60006020828403121561167d5761167c610f4e565b5b600061168b84828501611652565b91505092915050565b60006060820190506116a96000830186611129565b81810360208301526116bb818561120d565b90506116ca60408301846112ae565b949350505050565b7f4e487b7100000000000000000000000000000000000000000000000000000000600052602260045260246000fd5b6000600282049050600182168061171957607f821691505b60208210810361172c5761172b6116d2565b5b50919050565b600060208201905061174760008301846115ba565b92915050565b60008151905061175c81611324565b92915050565b60006020828403121561177857611777610f4e565b5b60006117868482850161174d565b91505092915050565b60006060820190506117a460008301866115ba565b6117b160208301856115ba565b6117be6040830184611129565b949350505050565b7f4e6f742061206275796572000000000000000000000000000000000000000000600082015250565b60006117fc600b836111c9565b9150611807826117c6565b602082019050919050565b6000602082019050818103600083015261182b816117ef565b9050919050565b600060408201905061184760008301856115ba565b6118546020830184611129565b9392505050565b7f4e487b7100000000000000000000000000000000000000000000000000000000600052603260045260246000fd5b600061189582610ef6565b9050919050565b6118a58161188a565b82525050565b60006040820190506118c0600083018561189c565b6118cd6020830184611129565b939250505056fea2646970667358221220498c86d99767687bafa6653d0c70ff5df386eb39e08543d88b1d87b0f2e2dd3b64736f6c634300080d0033",
  "immutableReferences": {},
  "source": "//SPDX-License-Identifier: UNLICENSED\npragma solidity >=0.4.22 <=0.9.0;\nimport \"./ERC20MYN.sol\";\n\ncontract BFEv4 {\n    enum Type {\n        Buyer,\n        Seller,\n        DeliveryPerson\n    }\n    struct User {\n        uint256 id;\n        string name;\n        Type userType;\n        bool reg;\n    }\n\n    uint256 public balance;\n    uint256 uid;\n    mapping(address => User) public users;\n    address owner;\n    ERC20MYN public swd;\n\n    event UserRegistered(uint256 bid, string bname, Type userType);\n    event UserUnregistered(uint256 bid, string bname, Type userType);\n    event FoodBought(address buyer, uint256 hashOfOrder);\n    \n    constructor(address tAdd) public {\n        owner = msg.sender;\n        swd = ERC20MYN(tAdd);\n        //swd.approve(owner, address(this), swd.totalSupply());\n    }\n\n    modifier onlyBuyer() {\n        require(\n            users[msg.sender].reg && users[msg.sender].userType == Type.Buyer,\n            \"Not a buyer\"\n        );\n        _;\n    }\n\n    modifier validUserType(Type userType) {\n        require(userType <= Type.DeliveryPerson);\n        _;\n    }\n\n    function SwdBalance() public view returns (uint256) {\n        return swd.balanceOf(msg.sender);\n    }\n\n    function UserReg(string memory name, Type userType)\n        public\n        validUserType(userType)\n    {\n        require(bytes(name).length > 0, \"Name cannot be empty\");\n        uid++;\n        swd.transferFrom(owner, msg.sender, 20 * 10**18);\n        users[msg.sender] = User(uid, name, userType, true);\n        // swd.approve(msg.sender, address(this), swd.totalSupply());\n        emit UserRegistered(uid, name, userType);\n    }\n\n    function UserUnreg() public {\n        User memory user = users[msg.sender];\n        require(user.reg);\n        swd.transferFrom(msg.sender, owner, swd.balanceOf(msg.sender));\n        user.reg = false;\n        users[msg.sender] = user;\n        emit UserUnregistered(user.id, user.name, user.userType);\n    }\n\n    function Order(uint256 hashOfOrder, uint256 numTokens)\n        public\n        payable\n        onlyBuyer\n    {\n        // balance = address(this).balance;\n        balance = swd.balanceOf(address(this));\n        swd.transferFrom(msg.sender, address(this), numTokens);\n        emit FoodBought(msg.sender, hashOfOrder);\n    }\n\n    function SettlePayment(bytes32[] memory sellersamount) public {\n        for (uint256 i = 0; i < sellersamount.length; i++) {\n            address payable seller = payable(\n                address(uint160(uint256(sellersamount[i] >> 96)))\n            );\n            uint256 amount = uint256(uint96(uint256(sellersamount[i])));\n            // seller.transfer(amount);\n            swd.transfer(seller, amount);\n        }\n        balance = swd.balanceOf(address(this));\n    }\n\n    \n}\n",
  "sourcePath": "/Users/hipswan/Desktop/projects/marketplace/foodex-contract/contracts/BFEv4.sol",
  "compiler": {
    "name": "solc",
    "version": "0.8.13+commit.abaa5c0e.Emscripten.clang"
  },
  "schemaVersion": "3.4.6",
  "updatedAt": "2022-05-08T20:40:17.256Z",
  "networkType": "ethereum",
  "devdoc": {
    "kind": "dev",
    "methods": {},
    "version": 1
  },
  "userdoc": {
    "kind": "user",
    "methods": {},
    "version": 1
  }
}