{
  "contractName": "BFEv4",
  "abi": [
    {
      "inputs": [
        {
          "internalType": "address",
          "name": "tAdd",
          "type": "address"
        }
      ],
      "stateMutability": "nonpayable",
      "type": "constructor"
    },
    {
      "anonymous": false,
      "inputs": [
        {
          "indexed": false,
          "internalType": "address",
          "name": "buyer",
          "type": "address"
        },
        {
          "indexed": false,
          "internalType": "uint256",
          "name": "hashOfOrder",
          "type": "uint256"
        }
      ],
      "name": "FoodBought",
      "type": "event"
    },
    {
      "anonymous": false,
      "inputs": [
        {
          "indexed": false,
          "internalType": "uint256",
          "name": "bid",
          "type": "uint256"
        },
        {
          "indexed": false,
          "internalType": "string",
          "name": "bname",
          "type": "string"
        },
        {
          "indexed": false,
          "internalType": "enum BFEv4.Type",
          "name": "userType",
          "type": "uint8"
        }
      ],
      "name": "UserRegistered",
      "type": "event"
    },
    {
      "anonymous": false,
      "inputs": [
        {
          "indexed": false,
          "internalType": "uint256",
          "name": "bid",
          "type": "uint256"
        },
        {
          "indexed": false,
          "internalType": "string",
          "name": "bname",
          "type": "string"
        },
        {
          "indexed": false,
          "internalType": "enum BFEv4.Type",
          "name": "userType",
          "type": "uint8"
        }
      ],
      "name": "UserUnregistered",
      "type": "event"
    },
    {
      "inputs": [],
      "name": "balance",
      "outputs": [
        {
          "internalType": "uint256",
          "name": "",
          "type": "uint256"
        }
      ],
      "stateMutability": "view",
      "type": "function",
      "constant": true
    },
    {
      "inputs": [],
      "name": "swd",
      "outputs": [
        {
          "internalType": "contract ERC20MYN",
          "name": "",
          "type": "address"
        }
      ],
      "stateMutability": "view",
      "type": "function",
      "constant": true
    },
    {
      "inputs": [
        {
          "internalType": "address",
          "name": "",
          "type": "address"
        }
      ],
      "name": "users",
      "outputs": [
        {
          "internalType": "uint256",
          "name": "id",
          "type": "uint256"
        },
        {
          "internalType": "string",
          "name": "name",
          "type": "string"
        },
        {
          "internalType": "enum BFEv4.Type",
          "name": "userType",
          "type": "uint8"
        },
        {
          "internalType": "bool",
          "name": "reg",
          "type": "bool"
        }
      ],
      "stateMutability": "view",
      "type": "function",
      "constant": true
    },
    {
      "inputs": [],
      "name": "SwdBalance",
      "outputs": [
        {
          "internalType": "uint256",
          "name": "",
          "type": "uint256"
        }
      ],
      "stateMutability": "view",
      "type": "function",
      "constant": true
    },
    {
      "inputs": [
        {
          "internalType": "string",
          "name": "name",
          "type": "string"
        },
        {
          "internalType": "enum BFEv4.Type",
          "name": "userType",
          "type": "uint8"
        }
      ],
      "name": "UserReg",
      "outputs": [],
      "stateMutability": "nonpayable",
      "type": "function"
    },
    {
      "inputs": [],
      "name": "UserUnreg",
      "outputs": [],
      "stateMutability": "nonpayable",
      "type": "function"
    },
    {
      "inputs": [
        {
          "internalType": "uint256",
          "name": "hashOfOrder",
          "type": "uint256"
        },
        {
          "internalType": "uint256",
          "name": "numTokens",
          "type": "uint256"
        }
      ],
      "name": "Order",
      "outputs": [],
      "stateMutability": "payable",
      "type": "function",
      "payable": true
    },
    {
      "inputs": [
        {
          "internalType": "bytes32[]",
          "name": "sellersamount",
          "type": "bytes32[]"
        }
      ],
      "name": "SettlePayment",
      "outputs": [],
      "stateMutability": "nonpayable",
      "type": "function"
    },
    {
      "inputs": [
        {
          "internalType": "address payable[]",
          "name": "sellers",
          "type": "address[]"
        },
        {
          "internalType": "uint256[]",
          "name": "money",
          "type": "uint256[]"
        }
      ],
      "name": "Buy",
      "outputs": [],
      "stateMutability": "nonpayable",
      "type": "function"
    }
  ],
  "bytecode": "0x60806040523480156200001157600080fd5b5060405162001f3138038062001f3183398181016040528101906200003791906200012a565b33600360006101000a81548173ffffffffffffffffffffffffffffffffffffffff021916908373ffffffffffffffffffffffffffffffffffffffff16021790555080600460006101000a81548173ffffffffffffffffffffffffffffffffffffffff021916908373ffffffffffffffffffffffffffffffffffffffff160217905550506200015c565b600080fd5b600073ffffffffffffffffffffffffffffffffffffffff82169050919050565b6000620000f282620000c5565b9050919050565b6200010481620000e5565b81146200011057600080fd5b50565b6000815190506200012481620000f9565b92915050565b600060208284031215620001435762000142620000c0565b5b6000620001538482850162000113565b91505092915050565b611dc5806200016c6000396000f3fe6080604052600436106100865760003560e01c8063a1811fda11610059578063a1811fda1461011f578063a87430ba1461014a578063b69ef8a81461018a578063be70e33d146101b5578063f0ebeaeb146101d157610086565b8063106536611461008b5780633d8c3a1f146100b65780634ef4760e146100df578063720b551b146100f6575b600080fd5b34801561009757600080fd5b506100a06101fa565b6040516100ad919061113c565b60405180910390f35b3480156100c257600080fd5b506100dd60048036038101906100d891906112d6565b610220565b005b3480156100eb57600080fd5b506100f46104af565b005b34801561010257600080fd5b5061011d60048036038101906101189190611531565b610872565b005b34801561012b57600080fd5b50610134610a51565b60405161014191906115b8565b60405180910390f35b34801561015657600080fd5b50610171600480360381019061016c9190611611565b610af4565b6040516101819493929190611758565b60405180910390f35b34801561019657600080fd5b5061019f610bc6565b6040516101ac91906115b8565b60405180910390f35b6101cf60048036038101906101ca91906117a4565b610bcc565b005b3480156101dd57600080fd5b506101f860048036038101906101f391906118dd565b610e5c565b005b600460009054906101000a900473ffffffffffffffffffffffffffffffffffffffff1681565b80600280811115610234576102336116c6565b5b816002811115610247576102466116c6565b5b111561025257600080fd5b6000835111610296576040517f08c379a000000000000000000000000000000000000000000000000000000000815260040161028d90611972565b60405180910390fd5b600160008154809291906102a9906119c1565b9190505550600460009054906101000a900473ffffffffffffffffffffffffffffffffffffffff1673ffffffffffffffffffffffffffffffffffffffff166323b872dd600360009054906101000a900473ffffffffffffffffffffffffffffffffffffffff16336801158e460913d000006040518463ffffffff1660e01b815260040161033893929190611a53565b6020604051808303816000875af1158015610357573d6000803e3d6000fd5b505050506040513d601f19601f8201168201806040525081019061037b9190611ab6565b50604051806080016040528060015481526020018481526020018360028111156103a8576103a76116c6565b5b815260200160011515815250600260003373ffffffffffffffffffffffffffffffffffffffff1673ffffffffffffffffffffffffffffffffffffffff16815260200190815260200160002060008201518160000155602082015181600101908051906020019061041992919061101a565b5060408201518160020160006101000a81548160ff02191690836002811115610445576104446116c6565b5b021790555060608201518160020160016101000a81548160ff0219169083151502179055509050507fd2f7b23eb8037a62d84c53363fde3b576ec32f2b75f40d359622ac551e3d691060015484846040516104a293929190611ae3565b60405180910390a1505050565b6000600260003373ffffffffffffffffffffffffffffffffffffffff1673ffffffffffffffffffffffffffffffffffffffff1681526020019081526020016000206040518060800160405290816000820154815260200160018201805461051590611b50565b80601f016020809104026020016040519081016040528092919081815260200182805461054190611b50565b801561058e5780601f106105635761010080835404028352916020019161058e565b820191906000526020600020905b81548152906001019060200180831161057157829003601f168201915b505050505081526020016002820160009054906101000a900460ff1660028111156105bc576105bb6116c6565b5b60028111156105ce576105cd6116c6565b5b81526020016002820160019054906101000a900460ff161515151581525050905080606001516105fd57600080fd5b600460009054906101000a900473ffffffffffffffffffffffffffffffffffffffff1673ffffffffffffffffffffffffffffffffffffffff166323b872dd33600360009054906101000a900473ffffffffffffffffffffffffffffffffffffffff16600460009054906101000a900473ffffffffffffffffffffffffffffffffffffffff1673ffffffffffffffffffffffffffffffffffffffff166370a08231336040518263ffffffff1660e01b81526004016106ba9190611b81565b602060405180830381865afa1580156106d7573d6000803e3d6000fd5b505050506040513d601f19601f820116820180604052508101906106fb9190611bb1565b6040518463ffffffff1660e01b815260040161071993929190611bde565b6020604051808303816000875af1158015610738573d6000803e3d6000fd5b505050506040513d601f19601f8201168201806040525081019061075c9190611ab6565b50600081606001901515908115158152505080600260003373ffffffffffffffffffffffffffffffffffffffff1673ffffffffffffffffffffffffffffffffffffffff1681526020019081526020016000206000820151816000015560208201518160010190805190602001906107d492919061101a565b5060408201518160020160006101000a81548160ff02191690836002811115610800576107ff6116c6565b5b021790555060608201518160020160016101000a81548160ff0219169083151502179055509050507fa7af9fd1f87c93fa697ed737f6da410c3ce677e59f4890a0bcec329b66b8961a81600001518260200151836040015160405161086793929190611ae3565b60405180910390a150565b80518251146108b6576040517f08c379a00000000000000000000000000000000000000000000000000000000081526004016108ad90611c61565b60405180910390fd5b60005b82518110156109aa57600460009054906101000a900473ffffffffffffffffffffffffffffffffffffffff1673ffffffffffffffffffffffffffffffffffffffff1663a9059cbb84838151811061091357610912611c81565b5b602002602001015184848151811061092e5761092d611c81565b5b60200260200101516040518363ffffffff1660e01b8152600401610953929190611cd1565b6020604051808303816000875af1158015610972573d6000803e3d6000fd5b505050506040513d601f19601f820116820180604052508101906109969190611ab6565b5080806109a2906119c1565b9150506108b9565b50600460009054906101000a900473ffffffffffffffffffffffffffffffffffffffff1673ffffffffffffffffffffffffffffffffffffffff166370a08231306040518263ffffffff1660e01b8152600401610a069190611b81565b602060405180830381865afa158015610a23573d6000803e3d6000fd5b505050506040513d601f19601f82011682018060405250810190610a479190611bb1565b6000819055505050565b6000600460009054906101000a900473ffffffffffffffffffffffffffffffffffffffff1673ffffffffffffffffffffffffffffffffffffffff166370a08231336040518263ffffffff1660e01b8152600401610aae9190611b81565b602060405180830381865afa158015610acb573d6000803e3d6000fd5b505050506040513d601f19601f82011682018060405250810190610aef9190611bb1565b905090565b6002602052806000526040600020600091509050806000015490806001018054610b1d90611b50565b80601f0160208091040260200160405190810160405280929190818152602001828054610b4990611b50565b8015610b965780601f10610b6b57610100808354040283529160200191610b96565b820191906000526020600020905b815481529060010190602001808311610b7957829003601f168201915b5050505050908060020160009054906101000a900460ff16908060020160019054906101000a900460ff16905084565b60005481565b600260003373ffffffffffffffffffffffffffffffffffffffff1673ffffffffffffffffffffffffffffffffffffffff16815260200190815260200160002060020160019054906101000a900460ff168015610c9b575060006002811115610c3757610c366116c6565b5b600260003373ffffffffffffffffffffffffffffffffffffffff1673ffffffffffffffffffffffffffffffffffffffff16815260200190815260200160002060020160009054906101000a900460ff166002811115610c9957610c986116c6565b5b145b610cda576040517f08c379a0000000000000000000000000000000000000000000000000000000008152600401610cd190611d46565b60405180910390fd5b600460009054906101000a900473ffffffffffffffffffffffffffffffffffffffff1673ffffffffffffffffffffffffffffffffffffffff166370a08231306040518263ffffffff1660e01b8152600401610d359190611b81565b602060405180830381865afa158015610d52573d6000803e3d6000fd5b505050506040513d601f19601f82011682018060405250810190610d769190611bb1565b600081905550600460009054906101000a900473ffffffffffffffffffffffffffffffffffffffff1673ffffffffffffffffffffffffffffffffffffffff166323b872dd3330846040518463ffffffff1660e01b8152600401610ddb93929190611bde565b6020604051808303816000875af1158015610dfa573d6000803e3d6000fd5b505050506040513d601f19601f82011682018060405250810190610e1e9190611ab6565b507fdda270714e0e5f82fc67bbcac54f752aef692a52a285dd5bf74f9b755b89d78c3383604051610e50929190611d66565b60405180910390a15050565b60005b8151811015610f745760006060838381518110610e7f57610e7e611c81565b5b6020026020010151901c60001c90506000838381518110610ea357610ea2611c81565b5b602002602001015160001c6bffffffffffffffffffffffff169050600460009054906101000a900473ffffffffffffffffffffffffffffffffffffffff1673ffffffffffffffffffffffffffffffffffffffff1663a9059cbb83836040518363ffffffff1660e01b8152600401610f1b929190611cd1565b6020604051808303816000875af1158015610f3a573d6000803e3d6000fd5b505050506040513d601f19601f82011682018060405250810190610f5e9190611ab6565b5050508080610f6c906119c1565b915050610e5f565b50600460009054906101000a900473ffffffffffffffffffffffffffffffffffffffff1673ffffffffffffffffffffffffffffffffffffffff166370a08231306040518263ffffffff1660e01b8152600401610fd09190611b81565b602060405180830381865afa158015610fed573d6000803e3d6000fd5b505050506040513d601f19601f820116820180604052508101906110119190611bb1565b60008190555050565b82805461102690611b50565b90600052602060002090601f016020900481019282611048576000855561108f565b82601f1061106157805160ff191683800117855561108f565b8280016001018555821561108f579182015b8281111561108e578251825591602001919060010190611073565b5b50905061109c91906110a0565b5090565b5b808211156110b95760008160009055506001016110a1565b5090565b600073ffffffffffffffffffffffffffffffffffffffff82169050919050565b6000819050919050565b60006111026110fd6110f8846110bd565b6110dd565b6110bd565b9050919050565b6000611114826110e7565b9050919050565b600061112682611109565b9050919050565b6111368161111b565b82525050565b6000602082019050611151600083018461112d565b92915050565b6000604051905090565b600080fd5b600080fd5b600080fd5b600080fd5b6000601f19601f8301169050919050565b7f4e487b7100000000000000000000000000000000000000000000000000000000600052604160045260246000fd5b6111be82611175565b810181811067ffffffffffffffff821117156111dd576111dc611186565b5b80604052505050565b60006111f0611157565b90506111fc82826111b5565b919050565b600067ffffffffffffffff82111561121c5761121b611186565b5b61122582611175565b9050602081019050919050565b82818337600083830152505050565b600061125461124f84611201565b6111e6565b9050828152602081018484840111156112705761126f611170565b5b61127b848285611232565b509392505050565b600082601f8301126112985761129761116b565b5b81356112a8848260208601611241565b91505092915050565b600381106112be57600080fd5b50565b6000813590506112d0816112b1565b92915050565b600080604083850312156112ed576112ec611161565b5b600083013567ffffffffffffffff81111561130b5761130a611166565b5b61131785828601611283565b9250506020611328858286016112c1565b9150509250929050565b600067ffffffffffffffff82111561134d5761134c611186565b5b602082029050602081019050919050565b600080fd5b600061136e826110bd565b9050919050565b61137e81611363565b811461138957600080fd5b50565b60008135905061139b81611375565b92915050565b60006113b46113af84611332565b6111e6565b905080838252602082019050602084028301858111156113d7576113d661135e565b5b835b8181101561140057806113ec888261138c565b8452602084019350506020810190506113d9565b5050509392505050565b600082601f83011261141f5761141e61116b565b5b813561142f8482602086016113a1565b91505092915050565b600067ffffffffffffffff82111561145357611452611186565b5b602082029050602081019050919050565b6000819050919050565b61147781611464565b811461148257600080fd5b50565b6000813590506114948161146e565b92915050565b60006114ad6114a884611438565b6111e6565b905080838252602082019050602084028301858111156114d0576114cf61135e565b5b835b818110156114f957806114e58882611485565b8452602084019350506020810190506114d2565b5050509392505050565b600082601f8301126115185761151761116b565b5b813561152884826020860161149a565b91505092915050565b6000806040838503121561154857611547611161565b5b600083013567ffffffffffffffff81111561156657611565611166565b5b6115728582860161140a565b925050602083013567ffffffffffffffff81111561159357611592611166565b5b61159f85828601611503565b9150509250929050565b6115b281611464565b82525050565b60006020820190506115cd60008301846115a9565b92915050565b60006115de826110bd565b9050919050565b6115ee816115d3565b81146115f957600080fd5b50565b60008135905061160b816115e5565b92915050565b60006020828403121561162757611626611161565b5b6000611635848285016115fc565b91505092915050565b600081519050919050565b600082825260208201905092915050565b60005b8381101561167857808201518184015260208101905061165d565b83811115611687576000848401525b50505050565b60006116988261163e565b6116a28185611649565b93506116b281856020860161165a565b6116bb81611175565b840191505092915050565b7f4e487b7100000000000000000000000000000000000000000000000000000000600052602160045260246000fd5b60038110611706576117056116c6565b5b50565b6000819050611717826116f5565b919050565b600061172782611709565b9050919050565b6117378161171c565b82525050565b60008115159050919050565b6117528161173d565b82525050565b600060808201905061176d60008301876115a9565b818103602083015261177f818661168d565b905061178e604083018561172e565b61179b6060830184611749565b95945050505050565b600080604083850312156117bb576117ba611161565b5b60006117c985828601611485565b92505060206117da85828601611485565b9150509250929050565b600067ffffffffffffffff8211156117ff576117fe611186565b5b602082029050602081019050919050565b6000819050919050565b61182381611810565b811461182e57600080fd5b50565b6000813590506118408161181a565b92915050565b6000611859611854846117e4565b6111e6565b9050808382526020820190506020840283018581111561187c5761187b61135e565b5b835b818110156118a557806118918882611831565b84526020840193505060208101905061187e565b5050509392505050565b600082601f8301126118c4576118c361116b565b5b81356118d4848260208601611846565b91505092915050565b6000602082840312156118f3576118f2611161565b5b600082013567ffffffffffffffff81111561191157611910611166565b5b61191d848285016118af565b91505092915050565b7f4e616d652063616e6e6f7420626520656d707479000000000000000000000000600082015250565b600061195c601483611649565b915061196782611926565b602082019050919050565b6000602082019050818103600083015261198b8161194f565b9050919050565b7f4e487b7100000000000000000000000000000000000000000000000000000000600052601160045260246000fd5b60006119cc82611464565b91507fffffffffffffffffffffffffffffffffffffffffffffffffffffffffffffffff82036119fe576119fd611992565b5b600182019050919050565b611a12816115d3565b82525050565b6000819050919050565b6000611a3d611a38611a3384611a18565b6110dd565b611464565b9050919050565b611a4d81611a22565b82525050565b6000606082019050611a686000830186611a09565b611a756020830185611a09565b611a826040830184611a44565b949350505050565b611a938161173d565b8114611a9e57600080fd5b50565b600081519050611ab081611a8a565b92915050565b600060208284031215611acc57611acb611161565b5b6000611ada84828501611aa1565b91505092915050565b6000606082019050611af860008301866115a9565b8181036020830152611b0a818561168d565b9050611b19604083018461172e565b949350505050565b7f4e487b7100000000000000000000000000000000000000000000000000000000600052602260045260246000fd5b60006002820490506001821680611b6857607f821691505b602082108103611b7b57611b7a611b21565b5b50919050565b6000602082019050611b966000830184611a09565b92915050565b600081519050611bab8161146e565b92915050565b600060208284031215611bc757611bc6611161565b5b6000611bd584828501611b9c565b91505092915050565b6000606082019050611bf36000830186611a09565b611c006020830185611a09565b611c0d60408301846115a9565b949350505050565b7f4e6f742073616d65206c656e6774680000000000000000000000000000000000600082015250565b6000611c4b600f83611649565b9150611c5682611c15565b602082019050919050565b60006020820190508181036000830152611c7a81611c3e565b9050919050565b7f4e487b7100000000000000000000000000000000000000000000000000000000600052603260045260246000fd5b6000611cbb82611109565b9050919050565b611ccb81611cb0565b82525050565b6000604082019050611ce66000830185611cc2565b611cf360208301846115a9565b9392505050565b7f4e6f742061206275796572000000000000000000000000000000000000000000600082015250565b6000611d30600b83611649565b9150611d3b82611cfa565b602082019050919050565b60006020820190508181036000830152611d5f81611d23565b9050919050565b6000604082019050611d7b6000830185611a09565b611d8860208301846115a9565b939250505056fea26469706673582212203a4c23f32fc3305daba25cae7c642744193c3a2e8c093603df1338c4a4b4899064736f6c634300080d0033",
  "immutableReferences": {},
  "source": "//SPDX-License-Identifier: UNLICENSED\npragma solidity >=0.4.22 <=0.9.0;\nimport \"./ERC20MYN.sol\";\n\ncontract BFEv4 {\n    enum Type {\n        Buyer,\n        Seller,\n        DeliveryPerson\n    }\n    struct User {\n        uint256 id;\n        string name;\n        Type userType;\n        bool reg;\n    }\n\n    uint256 public balance;\n    uint256 uid;\n    mapping(address => User) public users;\n    address owner;\n    ERC20MYN public swd;\n\n    event UserRegistered(uint256 bid, string bname, Type userType);\n    event UserUnregistered(uint256 bid, string bname, Type userType);\n    event FoodBought(address buyer, uint256 hashOfOrder);\n    \n    constructor(address tAdd) public {\n        owner = msg.sender;\n        swd = ERC20MYN(tAdd);\n        //swd.approve(owner, address(this), swd.totalSupply());\n    }\n\n    modifier onlyBuyer() {\n        require(\n            users[msg.sender].reg && users[msg.sender].userType == Type.Buyer,\n            \"Not a buyer\"\n        );\n        _;\n    }\n\n    modifier validUserType(Type userType) {\n        require(userType <= Type.DeliveryPerson);\n        _;\n    }\n\n    function SwdBalance() public view returns (uint256) {\n        return swd.balanceOf(msg.sender);\n    }\n\n    function UserReg(string memory name, Type userType)\n        public\n        validUserType(userType)\n    {\n        require(bytes(name).length > 0, \"Name cannot be empty\");\n        uid++;\n        swd.transferFrom(owner, msg.sender, 20 * 10**18);\n        users[msg.sender] = User(uid, name, userType, true);\n        // swd.approve(msg.sender, address(this), swd.totalSupply());\n        emit UserRegistered(uid, name, userType);\n    }\n\n    function UserUnreg() public {\n        User memory user = users[msg.sender];\n        require(user.reg);\n        swd.transferFrom(msg.sender, owner, swd.balanceOf(msg.sender));\n        user.reg = false;\n        users[msg.sender] = user;\n        emit UserUnregistered(user.id, user.name, user.userType);\n    }\n\n    function Order(uint256 hashOfOrder, uint256 numTokens)\n        public\n        payable\n        onlyBuyer\n    {\n        // balance = address(this).balance;\n        balance = swd.balanceOf(address(this));\n        swd.transferFrom(msg.sender, address(this), numTokens);\n        emit FoodBought(msg.sender, hashOfOrder);\n    }\n\n    function SettlePayment(bytes32[] memory sellersamount) public {\n        for (uint256 i = 0; i < sellersamount.length; i++) {\n            address payable seller = payable(\n                address(uint160(uint256(sellersamount[i] >> 96)))\n            );\n            uint256 amount = uint256(uint96(uint256(sellersamount[i])));\n            // seller.transfer(amount);\n            swd.transfer(seller, amount);\n        }\n        balance = swd.balanceOf(address(this));\n    }\n\n    function Buy(address payable[] memory sellers, uint256[] memory money)\n        public\n    {\n        require(sellers.length == money.length, \"Not same length\");\n        for (uint256 i = 0; i < sellers.length; i++) {\n            swd.transfer(sellers[i], money[i]);\n        }\n        balance = swd.balanceOf(address(this));\n    }\n}\n",
  "sourcePath": "/Users/hipswan/Desktop/projects/marketplace/foodex-contract/contracts/BFEv4.sol",
  "compiler": {
    "name": "solc",
    "version": "0.8.13+commit.abaa5c0e.Emscripten.clang"
  },
  "schemaVersion": "3.4.6",
  "updatedAt": "2022-05-08T18:17:55.564Z",
  "networkType": "ethereum",
  "devdoc": {
    "kind": "dev",
    "methods": {},
    "version": 1
  },
  "userdoc": {
    "kind": "user",
    "methods": {},
    "version": 1
  }
}