{
  "contractName": "ERC20MYN",
  "abi": [
    {
      "inputs": [
        {
          "internalType": "uint256",
          "name": "total",
          "type": "uint256"
        }
      ],
      "stateMutability": "nonpayable",
      "type": "constructor"
    },
    {
      "anonymous": false,
      "inputs": [
        {
          "indexed": true,
          "internalType": "address",
          "name": "tokenOwner",
          "type": "address"
        },
        {
          "indexed": true,
          "internalType": "address",
          "name": "spender",
          "type": "address"
        },
        {
          "indexed": false,
          "internalType": "uint256",
          "name": "tokens",
          "type": "uint256"
        }
      ],
      "name": "Approval",
      "type": "event"
    },
    {
      "anonymous": false,
      "inputs": [
        {
          "indexed": true,
          "internalType": "address",
          "name": "from",
          "type": "address"
        },
        {
          "indexed": true,
          "internalType": "address",
          "name": "to",
          "type": "address"
        },
        {
          "indexed": false,
          "internalType": "uint256",
          "name": "tokens",
          "type": "uint256"
        }
      ],
      "name": "Transfer",
      "type": "event"
    },
    {
      "inputs": [],
      "name": "ERCowner",
      "outputs": [
        {
          "internalType": "address",
          "name": "",
          "type": "address"
        }
      ],
      "stateMutability": "view",
      "type": "function",
      "constant": true
    },
    {
      "inputs": [],
      "name": "decimals",
      "outputs": [
        {
          "internalType": "uint8",
          "name": "",
          "type": "uint8"
        }
      ],
      "stateMutability": "view",
      "type": "function",
      "constant": true
    },
    {
      "inputs": [],
      "name": "name",
      "outputs": [
        {
          "internalType": "string",
          "name": "",
          "type": "string"
        }
      ],
      "stateMutability": "view",
      "type": "function",
      "constant": true
    },
    {
      "inputs": [],
      "name": "symbol",
      "outputs": [
        {
          "internalType": "string",
          "name": "",
          "type": "string"
        }
      ],
      "stateMutability": "view",
      "type": "function",
      "constant": true
    },
    {
      "inputs": [],
      "name": "totalSupply",
      "outputs": [
        {
          "internalType": "uint256",
          "name": "",
          "type": "uint256"
        }
      ],
      "stateMutability": "view",
      "type": "function",
      "constant": true
    },
    {
      "inputs": [
        {
          "internalType": "address",
          "name": "tokenOwner",
          "type": "address"
        }
      ],
      "name": "balanceOf",
      "outputs": [
        {
          "internalType": "uint256",
          "name": "",
          "type": "uint256"
        }
      ],
      "stateMutability": "view",
      "type": "function",
      "constant": true
    },
    {
      "inputs": [
        {
          "internalType": "address",
          "name": "receiver",
          "type": "address"
        },
        {
          "internalType": "uint256",
          "name": "numTokens",
          "type": "uint256"
        }
      ],
      "name": "transfer",
      "outputs": [
        {
          "internalType": "bool",
          "name": "",
          "type": "bool"
        }
      ],
      "stateMutability": "payable",
      "type": "function",
      "payable": true
    },
    {
      "inputs": [
        {
          "internalType": "address",
          "name": "delegate",
          "type": "address"
        },
        {
          "internalType": "uint256",
          "name": "numTokens",
          "type": "uint256"
        }
      ],
      "name": "approve",
      "outputs": [
        {
          "internalType": "bool",
          "name": "",
          "type": "bool"
        }
      ],
      "stateMutability": "nonpayable",
      "type": "function"
    },
    {
      "inputs": [
        {
          "internalType": "address",
          "name": "owner",
          "type": "address"
        },
        {
          "internalType": "address",
          "name": "delegate",
          "type": "address"
        }
      ],
      "name": "allowance",
      "outputs": [
        {
          "internalType": "uint256",
          "name": "",
          "type": "uint256"
        }
      ],
      "stateMutability": "view",
      "type": "function",
      "constant": true
    },
    {
      "inputs": [
        {
          "internalType": "address",
          "name": "owner",
          "type": "address"
        },
        {
          "internalType": "address",
          "name": "buyer",
          "type": "address"
        },
        {
          "internalType": "uint256",
          "name": "numTokens",
          "type": "uint256"
        }
      ],
      "name": "transferFrom",
      "outputs": [
        {
          "internalType": "bool",
          "name": "",
          "type": "bool"
        }
      ],
      "stateMutability": "nonpayable",
      "type": "function"
    },
    {
      "inputs": [],
      "name": "close",
      "outputs": [],
      "stateMutability": "nonpayable",
      "type": "function"
    }
  ],
  "bytecode": "0x60806040523480156200001157600080fd5b506040516200116a3803806200116a833981810160405281019062000037919062000120565b670de0b6b3a7640000816200004d919062000181565b600381905550600354600160003373ffffffffffffffffffffffffffffffffffffffff1673ffffffffffffffffffffffffffffffffffffffff16815260200190815260200160002081905550336000806101000a81548173ffffffffffffffffffffffffffffffffffffffff021916908373ffffffffffffffffffffffffffffffffffffffff16021790555050620001e2565b600080fd5b6000819050919050565b620000fa81620000e5565b81146200010657600080fd5b50565b6000815190506200011a81620000ef565b92915050565b600060208284031215620001395762000138620000e0565b5b6000620001498482850162000109565b91505092915050565b7f4e487b7100000000000000000000000000000000000000000000000000000000600052601160045260246000fd5b60006200018e82620000e5565b91506200019b83620000e5565b9250817fffffffffffffffffffffffffffffffffffffffffffffffffffffffffffffffff0483118215151615620001d757620001d662000152565b5b828202905092915050565b610f7880620001f26000396000f3fe60806040526004361061009c5760003560e01c806343d726d61161006457806343d726d61461019c57806370a08231146101b357806395d89b41146101f0578063a9059cbb1461021b578063dd62ed3e1461024b578063de4db4ac146102885761009c565b806306fdde03146100a1578063095ea7b3146100cc57806318160ddd1461010957806323b872dd14610134578063313ce56714610171575b600080fd5b3480156100ad57600080fd5b506100b66102b3565b6040516100c39190610bde565b60405180910390f35b3480156100d857600080fd5b506100f360048036038101906100ee9190610c99565b6102ec565b6040516101009190610cf4565b60405180910390f35b34801561011557600080fd5b5061011e6103de565b60405161012b9190610d1e565b60405180910390f35b34801561014057600080fd5b5061015b60048036038101906101569190610d39565b6103e8565b6040516101689190610cf4565b60405180910390f35b34801561017d57600080fd5b50610186610768565b6040516101939190610da8565b60405180910390f35b3480156101a857600080fd5b506101b161076d565b005b3480156101bf57600080fd5b506101da60048036038101906101d59190610dc3565b6107de565b6040516101e79190610d1e565b60405180910390f35b3480156101fc57600080fd5b50610205610827565b6040516102129190610bde565b60405180910390f35b61023560048036038101906102309190610c99565b610860565b6040516102429190610cf4565b60405180910390f35b34801561025757600080fd5b50610272600480360381019061026d9190610df0565b610a47565b60405161027f9190610d1e565b60405180910390f35b34801561029457600080fd5b5061029d610ace565b6040516102aa9190610e3f565b60405180910390f35b6040518060400160405280600481526020017f537761640000000000000000000000000000000000000000000000000000000081525081565b600081600260003373ffffffffffffffffffffffffffffffffffffffff1673ffffffffffffffffffffffffffffffffffffffff16815260200190815260200160002060008573ffffffffffffffffffffffffffffffffffffffff1673ffffffffffffffffffffffffffffffffffffffff168152602001908152602001600020819055508273ffffffffffffffffffffffffffffffffffffffff163373ffffffffffffffffffffffffffffffffffffffff167f8c5be1e5ebec7d5bd14f71427d1e84f3dd0314c0f7b2291e5b200ac8c7c3b925846040516103cc9190610d1e565b60405180910390a36001905092915050565b6000600354905090565b6000600160008573ffffffffffffffffffffffffffffffffffffffff1673ffffffffffffffffffffffffffffffffffffffff1681526020019081526020016000205482111561043657600080fd5b600260008573ffffffffffffffffffffffffffffffffffffffff1673ffffffffffffffffffffffffffffffffffffffff16815260200190815260200160002060003373ffffffffffffffffffffffffffffffffffffffff1673ffffffffffffffffffffffffffffffffffffffff168152602001908152602001600020548211156104bf57600080fd5b61051182600160008773ffffffffffffffffffffffffffffffffffffffff1673ffffffffffffffffffffffffffffffffffffffff16815260200190815260200160002054610af290919063ffffffff16565b600160008673ffffffffffffffffffffffffffffffffffffffff1673ffffffffffffffffffffffffffffffffffffffff168152602001908152602001600020819055506105e382600260008773ffffffffffffffffffffffffffffffffffffffff1673ffffffffffffffffffffffffffffffffffffffff16815260200190815260200160002060003373ffffffffffffffffffffffffffffffffffffffff1673ffffffffffffffffffffffffffffffffffffffff16815260200190815260200160002054610af290919063ffffffff16565b600260008673ffffffffffffffffffffffffffffffffffffffff1673ffffffffffffffffffffffffffffffffffffffff16815260200190815260200160002060003373ffffffffffffffffffffffffffffffffffffffff1673ffffffffffffffffffffffffffffffffffffffff168152602001908152602001600020819055506106b582600160008673ffffffffffffffffffffffffffffffffffffffff1673ffffffffffffffffffffffffffffffffffffffff16815260200190815260200160002054610b1990919063ffffffff16565b600160008573ffffffffffffffffffffffffffffffffffffffff1673ffffffffffffffffffffffffffffffffffffffff168152602001908152602001600020819055508273ffffffffffffffffffffffffffffffffffffffff168473ffffffffffffffffffffffffffffffffffffffff167fddf252ad1be2c89b69c2b068fc378daa952ba7f163c4a11628f55a4df523b3ef846040516107559190610d1e565b60405180910390a3600190509392505050565b601281565b60008054906101000a900473ffffffffffffffffffffffffffffffffffffffff1673ffffffffffffffffffffffffffffffffffffffff163373ffffffffffffffffffffffffffffffffffffffff16146107c557600080fd5b3373ffffffffffffffffffffffffffffffffffffffff16ff5b6000600160008373ffffffffffffffffffffffffffffffffffffffff1673ffffffffffffffffffffffffffffffffffffffff168152602001908152602001600020549050919050565b6040518060400160405280600381526020017f535744000000000000000000000000000000000000000000000000000000000081525081565b6000600160003373ffffffffffffffffffffffffffffffffffffffff1673ffffffffffffffffffffffffffffffffffffffff168152602001908152602001600020548211156108ae57600080fd5b61090082600160003373ffffffffffffffffffffffffffffffffffffffff1673ffffffffffffffffffffffffffffffffffffffff16815260200190815260200160002054610af290919063ffffffff16565b600160003373ffffffffffffffffffffffffffffffffffffffff1673ffffffffffffffffffffffffffffffffffffffff1681526020019081526020016000208190555061099582600160008673ffffffffffffffffffffffffffffffffffffffff1673ffffffffffffffffffffffffffffffffffffffff16815260200190815260200160002054610b1990919063ffffffff16565b600160008573ffffffffffffffffffffffffffffffffffffffff1673ffffffffffffffffffffffffffffffffffffffff168152602001908152602001600020819055508273ffffffffffffffffffffffffffffffffffffffff163373ffffffffffffffffffffffffffffffffffffffff167fddf252ad1be2c89b69c2b068fc378daa952ba7f163c4a11628f55a4df523b3ef84604051610a359190610d1e565b60405180910390a36001905092915050565b6000600260008473ffffffffffffffffffffffffffffffffffffffff1673ffffffffffffffffffffffffffffffffffffffff16815260200190815260200160002060008373ffffffffffffffffffffffffffffffffffffffff1673ffffffffffffffffffffffffffffffffffffffff16815260200190815260200160002054905092915050565b60008054906101000a900473ffffffffffffffffffffffffffffffffffffffff1681565b600082821115610b0557610b04610e5a565b5b8183610b119190610eb8565b905092915050565b6000808284610b289190610eec565b905083811015610b3b57610b3a610e5a565b5b8091505092915050565b600081519050919050565b600082825260208201905092915050565b60005b83811015610b7f578082015181840152602081019050610b64565b83811115610b8e576000848401525b50505050565b6000601f19601f8301169050919050565b6000610bb082610b45565b610bba8185610b50565b9350610bca818560208601610b61565b610bd381610b94565b840191505092915050565b60006020820190508181036000830152610bf88184610ba5565b905092915050565b600080fd5b600073ffffffffffffffffffffffffffffffffffffffff82169050919050565b6000610c3082610c05565b9050919050565b610c4081610c25565b8114610c4b57600080fd5b50565b600081359050610c5d81610c37565b92915050565b6000819050919050565b610c7681610c63565b8114610c8157600080fd5b50565b600081359050610c9381610c6d565b92915050565b60008060408385031215610cb057610caf610c00565b5b6000610cbe85828601610c4e565b9250506020610ccf85828601610c84565b9150509250929050565b60008115159050919050565b610cee81610cd9565b82525050565b6000602082019050610d096000830184610ce5565b92915050565b610d1881610c63565b82525050565b6000602082019050610d336000830184610d0f565b92915050565b600080600060608486031215610d5257610d51610c00565b5b6000610d6086828701610c4e565b9350506020610d7186828701610c4e565b9250506040610d8286828701610c84565b9150509250925092565b600060ff82169050919050565b610da281610d8c565b82525050565b6000602082019050610dbd6000830184610d99565b92915050565b600060208284031215610dd957610dd8610c00565b5b6000610de784828501610c4e565b91505092915050565b60008060408385031215610e0757610e06610c00565b5b6000610e1585828601610c4e565b9250506020610e2685828601610c4e565b9150509250929050565b610e3981610c25565b82525050565b6000602082019050610e546000830184610e30565b92915050565b7f4e487b7100000000000000000000000000000000000000000000000000000000600052600160045260246000fd5b7f4e487b7100000000000000000000000000000000000000000000000000000000600052601160045260246000fd5b6000610ec382610c63565b9150610ece83610c63565b925082821015610ee157610ee0610e89565b5b828203905092915050565b6000610ef782610c63565b9150610f0283610c63565b9250827fffffffffffffffffffffffffffffffffffffffffffffffffffffffffffffffff03821115610f3757610f36610e89565b5b82820190509291505056fea264697066735822122031a9bcf3e2a89cf6a80a1b0ffddcb0113fdbf148e9e1968cb1cb79fdb7b83dce64736f6c634300080d0033",
  "immutableReferences": {},
  "source": "//SPDX-License-Identifier: UNLICENSED\npragma solidity >=0.4.0 <=0.9.0;\n\ncontract ERC20MYN {\n    string public constant name = \"Swad\";\n    string public constant symbol = \"SWD\";\n    uint8 public constant decimals = 18;\n\n    address public ERCowner; //#1\n\n    event Approval(\n        address indexed tokenOwner,\n        address indexed spender,\n        uint256 tokens\n    );\n    event Transfer(address indexed from, address indexed to, uint256 tokens);\n\n    mapping(address => uint256) balances;\n\n    mapping(address => mapping(address => uint256)) allowed;\n\n    uint256 totalSupply_;\n\n    using SafeMath for uint256;\n\n    constructor(uint256 total) public {\n        totalSupply_ = total * 10**18;\n        balances[msg.sender] = totalSupply_;\n        ERCowner = msg.sender; //#2\n    }\n\n    function totalSupply() public view returns (uint256) {\n        return totalSupply_;\n    }\n\n    function balanceOf(address tokenOwner) public view returns (uint256) {\n        return balances[tokenOwner];\n    }\n\n    function transfer(address receiver, uint256 numTokens)\n        public\n        payable\n        returns (bool)\n    {\n        require(numTokens <= balances[msg.sender]);\n        balances[msg.sender] = balances[msg.sender].sub(numTokens);\n        balances[receiver] = balances[receiver].add(numTokens);\n        emit Transfer(msg.sender, receiver, numTokens);\n        return true;\n    }\n\n    function approve(address delegate , uint256 numTokens) public returns (bool) {\n        allowed[msg.sender][delegate] = numTokens;\n        emit Approval(msg.sender, delegate, numTokens);\n        return true;\n    }\n\n    function allowance(address owner, address delegate)\n        public\n        view\n        returns (uint256)\n    {\n        return allowed[owner][delegate];\n    }\n\n    function transferFrom(\n        address owner,\n        address buyer,\n        uint256 numTokens\n    ) public returns (bool) {\n        require(numTokens <= balances[owner]);\n        require(numTokens <= allowed[owner][msg.sender]);\n\n        balances[owner] = balances[owner].sub(numTokens);\n        allowed[owner][msg.sender] = allowed[owner][msg.sender].sub(numTokens);\n        balances[buyer] = balances[buyer].add(numTokens);\n        emit Transfer(owner, buyer, numTokens);\n        return true;\n    }\n\n    //#3\n    function close() public {\n        require(msg.sender == ERCowner);\n        selfdestruct(payable(msg.sender));\n    }\n}\n\nlibrary SafeMath {\n    function sub(uint256 a, uint256 b) internal pure returns (uint256) {\n        assert(b <= a);\n        return a - b;\n    }\n\n    function add(uint256 a, uint256 b) internal pure returns (uint256) {\n        uint256 c = a + b;\n        assert(c >= a);\n        return c;\n    }\n}\n",
  "sourcePath": "/Users/hipswan/Desktop/projects/marketplace/foodex-contract/contracts/ERC20MYN.sol",
  "compiler": {
    "name": "solc",
    "version": "0.8.13+commit.abaa5c0e.Emscripten.clang"
  },
  "schemaVersion": "3.4.6",
  "updatedAt": "2022-05-08T18:17:55.553Z",
  "networkType": "ethereum",
  "devdoc": {
    "kind": "dev",
    "methods": {},
    "version": 1
  },
  "userdoc": {
    "kind": "user",
    "methods": {},
    "version": 1
  }
}